{
  "contractName": "CustomERC721Token",
  "abi": [
    {
      "anonymous": false,
      "inputs": [
        {
          "indexed": true,
          "internalType": "address",
          "name": "owner",
          "type": "address"
        },
        {
          "indexed": true,
          "internalType": "address",
          "name": "approved",
          "type": "address"
        },
        {
          "indexed": true,
          "internalType": "uint256",
          "name": "tokenId",
          "type": "uint256"
        }
      ],
      "name": "Approval",
      "type": "event"
    },
    {
      "anonymous": false,
      "inputs": [
        {
          "indexed": true,
          "internalType": "address",
          "name": "owner",
          "type": "address"
        },
        {
          "indexed": true,
          "internalType": "address",
          "name": "operator",
          "type": "address"
        },
        {
          "indexed": false,
          "internalType": "bool",
          "name": "approved",
          "type": "bool"
        }
      ],
      "name": "ApprovalForAll",
      "type": "event"
    },
    {
      "anonymous": false,
      "inputs": [
        {
          "indexed": false,
          "internalType": "address",
          "name": "caller",
          "type": "address"
        }
      ],
      "name": "Paused",
      "type": "event"
    },
    {
      "anonymous": false,
      "inputs": [
        {
          "indexed": true,
          "internalType": "address",
          "name": "from",
          "type": "address"
        },
        {
          "indexed": true,
          "internalType": "address",
          "name": "to",
          "type": "address"
        },
        {
          "indexed": true,
          "internalType": "uint256",
          "name": "tokenId",
          "type": "uint256"
        }
      ],
      "name": "Transfer",
      "type": "event"
    },
    {
      "anonymous": false,
      "inputs": [
        {
          "indexed": false,
          "internalType": "address",
          "name": "caller",
          "type": "address"
        }
      ],
      "name": "Unpaused",
      "type": "event"
    },
    {
      "anonymous": false,
      "inputs": [
        {
          "indexed": false,
          "internalType": "address",
          "name": "currentOwner",
          "type": "address"
        },
        {
          "indexed": false,
          "internalType": "address",
          "name": "newOwner",
          "type": "address"
        }
      ],
      "name": "ownershipTransfer",
      "type": "event"
    },
    {
      "constant": true,
      "inputs": [
        {
          "internalType": "bytes32",
          "name": "_myid",
          "type": "bytes32"
        },
        {
          "internalType": "string",
          "name": "_result",
          "type": "string"
        }
      ],
      "name": "__callback",
      "outputs": [],
      "payable": false,
      "stateMutability": "pure",
      "type": "function"
    },
    {
      "constant": true,
      "inputs": [
        {
          "internalType": "bytes32",
          "name": "_myid",
          "type": "bytes32"
        },
        {
          "internalType": "string",
          "name": "_result",
          "type": "string"
        },
        {
          "internalType": "bytes",
          "name": "_proof",
          "type": "bytes"
        }
      ],
      "name": "__callback",
      "outputs": [],
      "payable": false,
      "stateMutability": "pure",
      "type": "function"
    },
    {
      "constant": true,
      "inputs": [],
      "name": "_owner",
      "outputs": [
        {
          "internalType": "address",
          "name": "",
          "type": "address"
        }
      ],
      "payable": false,
      "stateMutability": "view",
      "type": "function"
    },
    {
      "constant": false,
      "inputs": [
        {
          "internalType": "address",
          "name": "to",
          "type": "address"
        },
        {
          "internalType": "uint256",
          "name": "tokenId",
          "type": "uint256"
        }
      ],
      "name": "approve",
      "outputs": [],
      "payable": false,
      "stateMutability": "nonpayable",
      "type": "function"
    },
    {
      "constant": true,
      "inputs": [
        {
          "internalType": "address",
          "name": "owner",
          "type": "address"
        }
      ],
      "name": "balanceOf",
      "outputs": [
        {
          "internalType": "uint256",
          "name": "",
          "type": "uint256"
        }
      ],
      "payable": false,
      "stateMutability": "view",
      "type": "function"
    },
    {
      "constant": true,
      "inputs": [],
      "name": "baseTokenURI",
      "outputs": [
        {
          "internalType": "string",
          "name": "",
          "type": "string"
        }
      ],
      "payable": false,
      "stateMutability": "view",
      "type": "function"
    },
    {
      "constant": true,
      "inputs": [
        {
          "internalType": "uint256",
          "name": "tokenId",
          "type": "uint256"
        }
      ],
      "name": "getApproved",
      "outputs": [
        {
          "internalType": "address",
          "name": "",
          "type": "address"
        }
      ],
      "payable": false,
      "stateMutability": "view",
      "type": "function"
    },
    {
      "constant": true,
      "inputs": [
        {
          "internalType": "address",
          "name": "owner",
          "type": "address"
        },
        {
          "internalType": "address",
          "name": "operator",
          "type": "address"
        }
      ],
      "name": "isApprovedForAll",
      "outputs": [
        {
          "internalType": "bool",
          "name": "",
          "type": "bool"
        }
      ],
      "payable": false,
      "stateMutability": "view",
      "type": "function"
    },
    {
      "constant": true,
      "inputs": [],
      "name": "name",
      "outputs": [
        {
          "internalType": "string",
          "name": "",
          "type": "string"
        }
      ],
      "payable": false,
      "stateMutability": "view",
      "type": "function"
    },
    {
      "constant": true,
      "inputs": [
        {
          "internalType": "uint256",
          "name": "tokenId",
          "type": "uint256"
        }
      ],
      "name": "ownerOf",
      "outputs": [
        {
          "internalType": "address",
          "name": "",
          "type": "address"
        }
      ],
      "payable": false,
      "stateMutability": "view",
      "type": "function"
    },
    {
      "constant": false,
      "inputs": [
        {
          "internalType": "bool",
          "name": "isPaused",
          "type": "bool"
        }
      ],
      "name": "pausable",
      "outputs": [],
      "payable": false,
      "stateMutability": "nonpayable",
      "type": "function"
    },
    {
      "constant": true,
      "inputs": [],
      "name": "retrieveCurrentOwner",
      "outputs": [
        {
          "internalType": "address",
          "name": "",
          "type": "address"
        }
      ],
      "payable": false,
      "stateMutability": "view",
      "type": "function"
    },
    {
      "constant": false,
      "inputs": [
        {
          "internalType": "address",
          "name": "from",
          "type": "address"
        },
        {
          "internalType": "address",
          "name": "to",
          "type": "address"
        },
        {
          "internalType": "uint256",
          "name": "tokenId",
          "type": "uint256"
        }
      ],
      "name": "safeTransferFrom",
      "outputs": [],
      "payable": false,
      "stateMutability": "nonpayable",
      "type": "function"
    },
    {
      "constant": false,
      "inputs": [
        {
          "internalType": "address",
          "name": "from",
          "type": "address"
        },
        {
          "internalType": "address",
          "name": "to",
          "type": "address"
        },
        {
          "internalType": "uint256",
          "name": "tokenId",
          "type": "uint256"
        },
        {
          "internalType": "bytes",
          "name": "_data",
          "type": "bytes"
        }
      ],
      "name": "safeTransferFrom",
      "outputs": [],
      "payable": false,
      "stateMutability": "nonpayable",
      "type": "function"
    },
    {
      "constant": false,
      "inputs": [
        {
          "internalType": "address",
          "name": "to",
          "type": "address"
        },
        {
          "internalType": "bool",
          "name": "approved",
          "type": "bool"
        }
      ],
      "name": "setApprovalForAll",
      "outputs": [],
      "payable": false,
      "stateMutability": "nonpayable",
      "type": "function"
    },
    {
      "constant": true,
      "inputs": [
        {
          "internalType": "bytes4",
          "name": "interfaceId",
          "type": "bytes4"
        }
      ],
      "name": "supportsInterface",
      "outputs": [
        {
          "internalType": "bool",
          "name": "",
          "type": "bool"
        }
      ],
      "payable": false,
      "stateMutability": "view",
      "type": "function"
    },
    {
      "constant": true,
      "inputs": [],
      "name": "symbol",
      "outputs": [
        {
          "internalType": "string",
          "name": "",
          "type": "string"
        }
      ],
      "payable": false,
      "stateMutability": "view",
      "type": "function"
    },
    {
      "constant": true,
      "inputs": [
        {
          "internalType": "uint256",
          "name": "index",
          "type": "uint256"
        }
      ],
      "name": "tokenByIndex",
      "outputs": [
        {
          "internalType": "uint256",
          "name": "",
          "type": "uint256"
        }
      ],
      "payable": false,
      "stateMutability": "view",
      "type": "function"
    },
    {
      "constant": true,
      "inputs": [
        {
          "internalType": "address",
          "name": "owner",
          "type": "address"
        },
        {
          "internalType": "uint256",
          "name": "index",
          "type": "uint256"
        }
      ],
      "name": "tokenOfOwnerByIndex",
      "outputs": [
        {
          "internalType": "uint256",
          "name": "",
          "type": "uint256"
        }
      ],
      "payable": false,
      "stateMutability": "view",
      "type": "function"
    },
    {
      "constant": true,
      "inputs": [
        {
          "internalType": "uint256",
          "name": "tokenId",
          "type": "uint256"
        }
      ],
      "name": "tokenURI",
      "outputs": [
        {
          "internalType": "string",
          "name": "",
          "type": "string"
        }
      ],
      "payable": false,
      "stateMutability": "view",
      "type": "function"
    },
    {
      "constant": true,
      "inputs": [],
      "name": "totalSupply",
      "outputs": [
        {
          "internalType": "uint256",
          "name": "",
          "type": "uint256"
        }
      ],
      "payable": false,
      "stateMutability": "view",
      "type": "function"
    },
    {
      "constant": false,
      "inputs": [
        {
          "internalType": "address",
          "name": "from",
          "type": "address"
        },
        {
          "internalType": "address",
          "name": "to",
          "type": "address"
        },
        {
          "internalType": "uint256",
          "name": "tokenId",
          "type": "uint256"
        }
      ],
      "name": "transferFrom",
      "outputs": [],
      "payable": false,
      "stateMutability": "nonpayable",
      "type": "function"
    },
    {
      "constant": false,
      "inputs": [
        {
          "internalType": "address",
          "name": "newOwner",
          "type": "address"
        }
      ],
      "name": "transferOwnership",
      "outputs": [],
      "payable": false,
      "stateMutability": "nonpayable",
      "type": "function"
    },
    {
      "constant": false,
      "inputs": [
        {
          "internalType": "address",
          "name": "to",
          "type": "address"
        },
        {
          "internalType": "uint256",
          "name": "tokenId",
          "type": "uint256"
        }
      ],
      "name": "mint",
      "outputs": [
        {
          "internalType": "bool",
          "name": "",
          "type": "bool"
        }
      ],
      "payable": false,
      "stateMutability": "nonpayable",
      "type": "function"
    }
  ],
  "bytecode": "0x60806040526040518060400160405280601581526020017f5265616c457374617465204e465420546f6b656e7300000000000000000000008152506040518060400160405280600481526020017f52454e54000000000000000000000000000000000000000000000000000000008152506040518060600160405280603f8152602001620032b1603f9139336000806101000a81548173ffffffffffffffffffffffffffffffffffffffff021916908373ffffffffffffffffffffffffffffffffffffffff1602179055507f7ee35ffa528a36037ec23ed4b99d479118464d605ffa951ac0441db66273b33260008060009054906101000a900473ffffffffffffffffffffffffffffffffffffffff16604051808373ffffffffffffffffffffffffffffffffffffffff1673ffffffffffffffffffffffffffffffffffffffff1681526020018273ffffffffffffffffffffffffffffffffffffffff1673ffffffffffffffffffffffffffffffffffffffff1681526020019250505060405180910390a160008060146101000a81548160ff021916908315150217905550620001b56301ffc9a760e01b6200025660201b60201c565b620001cd6380ac58cd60e01b6200025660201b60201c565b620001e563780e9d6360e01b6200025660201b60201c565b82600f9080519060200190620001fd929190620002f6565b50816010908051906020019062000216929190620002f6565b5080601190805190602001906200022f929190620002f6565b506200024d635b5e139f60e01b6200025660201b62002dcf1760201c565b505050620003a5565b63ffffffff60e01b817bffffffffffffffffffffffffffffffffffffffffffffffffffffffff191614156200028a57600080fd5b6001806000837bffffffffffffffffffffffffffffffffffffffffffffffffffffffff19167bffffffffffffffffffffffffffffffffffffffffffffffffffffffff1916815260200190815260200160002060006101000a81548160ff02191690831515021790555050565b828054600181600116156101000203166002900490600052602060002090601f016020900481019282601f106200033957805160ff19168380011785556200036a565b828001600101855582156200036a579182015b82811115620003695782518255916020019190600101906200034c565b5b5090506200037991906200037d565b5090565b620003a291905b808211156200039e57600081600090555060010162000384565b5090565b90565b612efc80620003b56000396000f3fe608060405234801561001057600080fd5b50600436106101585760003560e01c80634f6ccce7116100c3578063b2bdfa7b1161007c578063b2bdfa7b14610939578063b88d4fde14610983578063c87b56dd14610a88578063d547cfb714610b2f578063e985e9c514610bb2578063f2fde38b14610c2e57610158565b80634f6ccce7146107145780636352211e1461075657806370a08231146107c457806395d89b411461081c578063a22cb4651461089f578063aa59c546146108ef57610158565b8063272870ac11610115578063272870ac1461038d57806327dc297e146103bd5780632f745c591461048257806338bbfa50146104e457806340c10f191461064057806342842e0e146106a657610158565b806301ffc9a71461015d57806306fdde03146101c2578063081812fc14610245578063095ea7b3146102b357806318160ddd1461030157806323b872dd1461031f575b600080fd5b6101a86004803603602081101561017357600080fd5b8101908080357bffffffffffffffffffffffffffffffffffffffffffffffffffffffff19169060200190929190505050610c72565b604051808215151515815260200191505060405180910390f35b6101ca610cda565b6040518080602001828103825283818151815260200191508051906020019080838360005b8381101561020a5780820151818401526020810190506101ef565b50505050905090810190601f1680156102375780820380516001836020036101000a031916815260200191505b509250505060405180910390f35b6102716004803603602081101561025b57600080fd5b8101908080359060200190929190505050610d7c565b604051808273ffffffffffffffffffffffffffffffffffffffff1673ffffffffffffffffffffffffffffffffffffffff16815260200191505060405180910390f35b6102ff600480360360408110156102c957600080fd5b81019080803573ffffffffffffffffffffffffffffffffffffffff16906020019092919080359060200190929190505050610e34565b005b610309610fc1565b6040518082815260200191505060405180910390f35b61038b6004803603606081101561033557600080fd5b81019080803573ffffffffffffffffffffffffffffffffffffffff169060200190929190803573ffffffffffffffffffffffffffffffffffffffff16906020019092919080359060200190929190505050610fce565b005b6103bb600480360360208110156103a357600080fd5b81019080803515159060200190929190505050610ff1565b005b610480600480360360408110156103d357600080fd5b8101908080359060200190929190803590602001906401000000008111156103fa57600080fd5b82018360208201111561040c57600080fd5b8035906020019184600183028401116401000000008311171561042e57600080fd5b91908080601f016020809104026020016040519081016040528093929190818152602001838380828437600081840152601f19601f820116905080830192505050505050509192919290505050611159565b005b6104ce6004803603604081101561049857600080fd5b81019080803573ffffffffffffffffffffffffffffffffffffffff1690602001909291908035906020019092919050505061119c565b6040518082815260200191505060405180910390f35b61063e600480360360608110156104fa57600080fd5b81019080803590602001909291908035906020019064010000000081111561052157600080fd5b82018360208201111561053357600080fd5b8035906020019184600183028401116401000000008311171561055557600080fd5b91908080601f016020809104026020016040519081016040528093929190818152602001838380828437600081840152601f19601f820116905080830192505050505050509192919290803590602001906401000000008111156105b857600080fd5b8201836020820111156105ca57600080fd5b803590602001918460018302840111640100000000831117156105ec57600080fd5b91908080601f016020809104026020016040519081016040528093929190818152602001838380828437600081840152601f19601f82011690508083019250505050505050919291929050505061120f565b005b61068c6004803603604081101561065657600080fd5b81019080803573ffffffffffffffffffffffffffffffffffffffff16906020019092919080359060200190929190505050611214565b604051808215151515815260200191505060405180910390f35b610712600480360360608110156106bc57600080fd5b81019080803573ffffffffffffffffffffffffffffffffffffffff169060200190929190803573ffffffffffffffffffffffffffffffffffffffff169060200190929190803590602001909291905050506112f5565b005b6107406004803603602081101561072a57600080fd5b8101908080359060200190929190505050611315565b6040518082815260200191505060405180910390f35b6107826004803603602081101561076c57600080fd5b8101908080359060200190929190505050611349565b604051808273ffffffffffffffffffffffffffffffffffffffff1673ffffffffffffffffffffffffffffffffffffffff16815260200191505060405180910390f35b610806600480360360208110156107da57600080fd5b81019080803573ffffffffffffffffffffffffffffffffffffffff169060200190929190505050611386565b6040518082815260200191505060405180910390f35b6108246113d6565b6040518080602001828103825283818151815260200191508051906020019080838360005b83811015610864578082015181840152602081019050610849565b50505050905090810190601f1680156108915780820380516001836020036101000a031916815260200191505b509250505060405180910390f35b6108ed600480360360408110156108b557600080fd5b81019080803573ffffffffffffffffffffffffffffffffffffffff169060200190929190803515159060200190929190505050611478565b005b6108f76115b2565b604051808273ffffffffffffffffffffffffffffffffffffffff1673ffffffffffffffffffffffffffffffffffffffff16815260200191505060405180910390f35b6109416115db565b604051808273ffffffffffffffffffffffffffffffffffffffff1673ffffffffffffffffffffffffffffffffffffffff16815260200191505060405180910390f35b610a866004803603608081101561099957600080fd5b81019080803573ffffffffffffffffffffffffffffffffffffffff169060200190929190803573ffffffffffffffffffffffffffffffffffffffff1690602001909291908035906020019092919080359060200190640100000000811115610a0057600080fd5b820183602082011115610a1257600080fd5b80359060200191846001830284011164010000000083111715610a3457600080fd5b91908080601f016020809104026020016040519081016040528093929190818152602001838380828437600081840152601f19601f820116905080830192505050505050509192919290505050611600565b005b610ab460048036036020811015610a9e57600080fd5b8101908080359060200190929190505050611626565b6040518080602001828103825283818151815260200191508051906020019080838360005b83811015610af4578082015181840152602081019050610ad9565b50505050905090810190601f168015610b215780820380516001836020036101000a031916815260200191505b509250505060405180910390f35b610b376116ed565b6040518080602001828103825283818151815260200191508051906020019080838360005b83811015610b77578082015181840152602081019050610b5c565b50505050905090810190601f168015610ba45780820380516001836020036101000a031916815260200191505b509250505060405180910390f35b610c1460048036036040811015610bc857600080fd5b81019080803573ffffffffffffffffffffffffffffffffffffffff169060200190929190803573ffffffffffffffffffffffffffffffffffffffff16906020019092919050505061178f565b604051808215151515815260200191505060405180910390f35b610c7060048036036020811015610c4457600080fd5b81019080803573ffffffffffffffffffffffffffffffffffffffff169060200190929190505050611823565b005b600060016000837bffffffffffffffffffffffffffffffffffffffffffffffffffffffff19167bffffffffffffffffffffffffffffffffffffffffffffffffffffffff1916815260200190815260200160002060009054906101000a900460ff169050919050565b6060600f8054600181600116156101000203166002900480601f016020809104026020016040519081016040528092919081815260200182805460018160011615610100020316600290048015610d725780601f10610d4757610100808354040283529160200191610d72565b820191906000526020600020905b815481529060010190602001808311610d5557829003601f168201915b5050505050905090565b6000610d8782611aaa565b610df9576040517f08c379a00000000000000000000000000000000000000000000000000000000081526004018080602001828103825260148152602001807f546f6b656e20646f6573206e6f7420657869737400000000000000000000000081525060200191505060405180910390fd5b6003600083815260200190815260200160002060009054906101000a900473ffffffffffffffffffffffffffffffffffffffff169050919050565b6000610e3f82611349565b90508073ffffffffffffffffffffffffffffffffffffffff168373ffffffffffffffffffffffffffffffffffffffff161415610ec6576040517f08c379a000000000000000000000000000000000000000000000000000000000815260040180806020018281038252602c815260200180612e6f602c913960400191505060405180910390fd5b8073ffffffffffffffffffffffffffffffffffffffff163373ffffffffffffffffffffffffffffffffffffffff161480610f065750610f05813361178f565b5b610f0f57600080fd5b826003600084815260200190815260200160002060006101000a81548173ffffffffffffffffffffffffffffffffffffffff021916908373ffffffffffffffffffffffffffffffffffffffff160217905550818373ffffffffffffffffffffffffffffffffffffffff163373ffffffffffffffffffffffffffffffffffffffff167f8c5be1e5ebec7d5bd14f71427d1e84f3dd0314c0f7b2291e5b200ac8c7c3b92560405160405180910390a4505050565b6000600880549050905090565b610fd83382611b1c565b610fe157600080fd5b610fec838383611bb1565b505050565b6000809054906101000a900473ffffffffffffffffffffffffffffffffffffffff1673ffffffffffffffffffffffffffffffffffffffff163373ffffffffffffffffffffffffffffffffffffffff16146110b3576040517f08c379a00000000000000000000000000000000000000000000000000000000081526004018080602001828103825260198152602001807f4e6f74206f776e6572206f662074686520636f6e74726163740000000000000081525060200191505060405180910390fd5b801515600060149054906101000a900460ff161515141561113c576040517f08c379a000000000000000000000000000000000000000000000000000000000815260040180806020018281038252601c8152602001807f706175736564207661726961626c65206973206e6f742066616c73650000000081525060200191505060405180910390fd5b80600060146101000a81548160ff02191690831515021790555050565b611198828260006040519080825280601f01601f1916602001820160405280156111925781602001600182028038833980820191505090505b5061120f565b5050565b60006111a783611386565b82106111b257600080fd5b600660008473ffffffffffffffffffffffffffffffffffffffff1673ffffffffffffffffffffffffffffffffffffffff16815260200190815260200160002082815481106111fc57fe5b9060005260206000200154905092915050565b505050565b60008060009054906101000a900473ffffffffffffffffffffffffffffffffffffffff1673ffffffffffffffffffffffffffffffffffffffff163373ffffffffffffffffffffffffffffffffffffffff16146112d8576040517f08c379a00000000000000000000000000000000000000000000000000000000081526004018080602001828103825260198152602001807f4e6f74206f776e6572206f662074686520636f6e74726163740000000000000081525060200191505060405180910390fd5b6112e28383611bd5565b6112eb82611bf6565b6001905092915050565b61131083838360405180602001604052806000815250611600565b505050565b600061131f610fc1565b821061132a57600080fd5b6008828154811061133757fe5b90600052602060002001549050919050565b60006002600083815260200190815260200160002060009054906101000a900473ffffffffffffffffffffffffffffffffffffffff169050919050565b60006113cf600460008473ffffffffffffffffffffffffffffffffffffffff1673ffffffffffffffffffffffffffffffffffffffff168152602001908152602001600020611d47565b9050919050565b606060108054600181600116156101000203166002900480601f01602080910402602001604051908101604052809291908181526020018280546001816001161561010002031660029004801561146e5780601f106114435761010080835404028352916020019161146e565b820191906000526020600020905b81548152906001019060200180831161145157829003601f168201915b5050505050905090565b3373ffffffffffffffffffffffffffffffffffffffff168273ffffffffffffffffffffffffffffffffffffffff1614156114b157600080fd5b80600560003373ffffffffffffffffffffffffffffffffffffffff1673ffffffffffffffffffffffffffffffffffffffff16815260200190815260200160002060008473ffffffffffffffffffffffffffffffffffffffff1673ffffffffffffffffffffffffffffffffffffffff16815260200190815260200160002060006101000a81548160ff0219169083151502179055508173ffffffffffffffffffffffffffffffffffffffff163373ffffffffffffffffffffffffffffffffffffffff167f17307eab39ab6107e8899845ad3d59bd9653f200f220920489ca2b5937696c3183604051808215151515815260200191505060405180910390a35050565b60008060009054906101000a900473ffffffffffffffffffffffffffffffffffffffff16905090565b6000809054906101000a900473ffffffffffffffffffffffffffffffffffffffff1681565b61160b848484610fce565b61161784848484611d55565b61162057600080fd5b50505050565b606061163182611aaa565b61163a57600080fd5b601260008381526020019081526020016000208054600181600116156101000203166002900480601f0160208091040260200160405190810160405280929190818152602001828054600181600116156101000203166002900480156116e15780601f106116b6576101008083540402835291602001916116e1565b820191906000526020600020905b8154815290600101906020018083116116c457829003601f168201915b50505050509050919050565b606060118054600181600116156101000203166002900480601f0160208091040260200160405190810160405280929190818152602001828054600181600116156101000203166002900480156117855780601f1061175a57610100808354040283529160200191611785565b820191906000526020600020905b81548152906001019060200180831161176857829003601f168201915b5050505050905090565b6000600560008473ffffffffffffffffffffffffffffffffffffffff1673ffffffffffffffffffffffffffffffffffffffff16815260200190815260200160002060008373ffffffffffffffffffffffffffffffffffffffff1673ffffffffffffffffffffffffffffffffffffffff16815260200190815260200160002060009054906101000a900460ff16905092915050565b6000809054906101000a900473ffffffffffffffffffffffffffffffffffffffff1673ffffffffffffffffffffffffffffffffffffffff163373ffffffffffffffffffffffffffffffffffffffff16146118e5576040517f08c379a00000000000000000000000000000000000000000000000000000000081526004018080602001828103825260198152602001807f4e6f74206f776e6572206f662074686520636f6e74726163740000000000000081525060200191505060405180910390fd5b600073ffffffffffffffffffffffffffffffffffffffff168173ffffffffffffffffffffffffffffffffffffffff161415611988576040517f08c379a000000000000000000000000000000000000000000000000000000000815260040180806020018281038252601e8152602001807f6e65774f776e6572206973206e6f742061207265616c2061646472657373000081525060200191505060405180910390fd5b60008060009054906101000a900473ffffffffffffffffffffffffffffffffffffffff169050816000806101000a81548173ffffffffffffffffffffffffffffffffffffffff021916908373ffffffffffffffffffffffffffffffffffffffff1602179055507f7ee35ffa528a36037ec23ed4b99d479118464d605ffa951ac0441db66273b332816000809054906101000a900473ffffffffffffffffffffffffffffffffffffffff16604051808373ffffffffffffffffffffffffffffffffffffffff1673ffffffffffffffffffffffffffffffffffffffff1681526020018273ffffffffffffffffffffffffffffffffffffffff1673ffffffffffffffffffffffffffffffffffffffff1681526020019250505060405180910390a15050565b6000806002600084815260200190815260200160002060009054906101000a900473ffffffffffffffffffffffffffffffffffffffff169050600073ffffffffffffffffffffffffffffffffffffffff168173ffffffffffffffffffffffffffffffffffffffff161415915050919050565b600080611b2883611349565b90508073ffffffffffffffffffffffffffffffffffffffff168473ffffffffffffffffffffffffffffffffffffffff161480611b9757508373ffffffffffffffffffffffffffffffffffffffff16611b7f84610d7c565b73ffffffffffffffffffffffffffffffffffffffff16145b80611ba85750611ba7818561178f565b5b91505092915050565b611bbc838383611f3e565b611bc683826121b6565b611bd08282612354565b505050565b611bdf828261241b565b611be98282612354565b611bf281612633565b5050565b611bff81611aaa565b611c71576040517f08c379a000000000000000000000000000000000000000000000000000000000815260040180806020018281038252601b8152602001807f5468697320697320616e20696e76616c696420746f6b656e206964000000000081525060200191505060405180910390fd5b611d1d60118054600181600116156101000203166002900480601f016020809104026020016040519081016040528092919081815260200182805460018160011615610100020316600290048015611d0a5780601f10611cdf57610100808354040283529160200191611d0a565b820191906000526020600020905b815481529060010190602001808311611ced57829003601f168201915b5050505050611d188361267f565b6127ac565b601260008381526020019081526020016000209080519060200190611d43929190612cfe565b5050565b600081600001549050919050565b6000611d768473ffffffffffffffffffffffffffffffffffffffff166127f0565b611d835760019050611f36565b60008473ffffffffffffffffffffffffffffffffffffffff1663150b7a02338887876040518563ffffffff1660e01b8152600401808573ffffffffffffffffffffffffffffffffffffffff1673ffffffffffffffffffffffffffffffffffffffff1681526020018473ffffffffffffffffffffffffffffffffffffffff1673ffffffffffffffffffffffffffffffffffffffff16815260200183815260200180602001828103825283818151815260200191508051906020019080838360005b83811015611e5e578082015181840152602081019050611e43565b50505050905090810190601f168015611e8b5780820380516001836020036101000a031916815260200191505b5095505050505050602060405180830381600087803b158015611ead57600080fd5b505af1158015611ec1573d6000803e3d6000fd5b505050506040513d6020811015611ed757600080fd5b8101908080519060200190929190505050905063150b7a0260e01b7bffffffffffffffffffffffffffffffffffffffffffffffffffffffff1916817bffffffffffffffffffffffffffffffffffffffffffffffffffffffff1916149150505b949350505050565b611f4781611349565b73ffffffffffffffffffffffffffffffffffffffff168373ffffffffffffffffffffffffffffffffffffffff1614611fca576040517f08c379a000000000000000000000000000000000000000000000000000000000815260040180806020018281038252602d815260200180612e9b602d913960400191505060405180910390fd5b600073ffffffffffffffffffffffffffffffffffffffff168273ffffffffffffffffffffffffffffffffffffffff16141561206d576040517f08c379a00000000000000000000000000000000000000000000000000000000081526004018080602001828103825260208152602001807f7472616e7366657220746f2061646472657373206973206e6f742076616c696481525060200191505060405180910390fd5b6120768161283b565b6120bd600460008573ffffffffffffffffffffffffffffffffffffffff1673ffffffffffffffffffffffffffffffffffffffff1681526020019081526020016000206128f9565b612104600460008473ffffffffffffffffffffffffffffffffffffffff1673ffffffffffffffffffffffffffffffffffffffff16815260200190815260200160002061291c565b816002600083815260200190815260200160002060006101000a81548173ffffffffffffffffffffffffffffffffffffffff021916908373ffffffffffffffffffffffffffffffffffffffff160217905550808273ffffffffffffffffffffffffffffffffffffffff168473ffffffffffffffffffffffffffffffffffffffff167fddf252ad1be2c89b69c2b068fc378daa952ba7f163c4a11628f55a4df523b3ef60405160405180910390a4505050565b600061220e6001600660008673ffffffffffffffffffffffffffffffffffffffff1673ffffffffffffffffffffffffffffffffffffffff1681526020019081526020016000208054905061293290919063ffffffff16565b90506000600760008481526020019081526020016000205490508181146122fb576000600660008673ffffffffffffffffffffffffffffffffffffffff1673ffffffffffffffffffffffffffffffffffffffff168152602001908152602001600020838154811061227b57fe5b9060005260206000200154905080600660008773ffffffffffffffffffffffffffffffffffffffff1673ffffffffffffffffffffffffffffffffffffffff16815260200190815260200160002083815481106122d357fe5b9060005260206000200181905550816007600083815260200190815260200160002081905550505b600660008573ffffffffffffffffffffffffffffffffffffffff1673ffffffffffffffffffffffffffffffffffffffff16815260200190815260200160002080548091906001900361234d9190612d7e565b5050505050565b600660008373ffffffffffffffffffffffffffffffffffffffff1673ffffffffffffffffffffffffffffffffffffffff168152602001908152602001600020805490506007600083815260200190815260200160002081905550600660008373ffffffffffffffffffffffffffffffffffffffff1673ffffffffffffffffffffffffffffffffffffffff1681526020019081526020016000208190806001815401808255809150509060018203906000526020600020016000909192909190915055505050565b61242481611aaa565b15612497576040517f08c379a00000000000000000000000000000000000000000000000000000000081526004018080602001828103825260148152602001807f546f6b656e20616c72656164792065786973747300000000000000000000000081525060200191505060405180910390fd5b600073ffffffffffffffffffffffffffffffffffffffff168273ffffffffffffffffffffffffffffffffffffffff16141561253a576040517f08c379a00000000000000000000000000000000000000000000000000000000081526004018080602001828103825260188152602001807f4164647265737320676976656e20697320696e76616c6964000000000000000081525060200191505060405180910390fd5b816002600083815260200190815260200160002060006101000a81548173ffffffffffffffffffffffffffffffffffffffff021916908373ffffffffffffffffffffffffffffffffffffffff1602179055506125d3600460008473ffffffffffffffffffffffffffffffffffffffff1673ffffffffffffffffffffffffffffffffffffffff16815260200190815260200160002061291c565b808273ffffffffffffffffffffffffffffffffffffffff16600073ffffffffffffffffffffffffffffffffffffffff167fddf252ad1be2c89b69c2b068fc378daa952ba7f163c4a11628f55a4df523b3ef60405160405180910390a45050565b6008805490506009600083815260200190815260200160002081905550600881908060018154018082558091505090600182039060005260206000200160009091929091909150555050565b606060008214156126c7576040518060400160405280600181526020017f300000000000000000000000000000000000000000000000000000000000000081525090506127a7565b600082905060005b600082146126f1578080600101915050600a82816126e957fe5b0491506126cf565b6060816040519080825280601f01601f1916602001820160405280156127265781602001600182028038833980820191505090505b50905060006001830390505b6000861461279f57600a868161274457fe5b0660300160f81b8282806001900393508151811061275e57fe5b60200101907effffffffffffffffffffffffffffffffffffffffffffffffffffffffffffff1916908160001a905350600a868161279757fe5b049550612732565b819450505050505b919050565b60606127e8838360405180602001604052806000815250604051806020016040528060008152506040518060200160405280600081525061297c565b905092915050565b60008060007fc5d2460186f7233c927e7db2dcc703c0e500b653ca82273b7bfad8045d85a47060001b9050833f915080821415801561283257506000801b8214155b92505050919050565b600073ffffffffffffffffffffffffffffffffffffffff166003600083815260200190815260200160002060009054906101000a900473ffffffffffffffffffffffffffffffffffffffff1673ffffffffffffffffffffffffffffffffffffffff16146128f65760006003600083815260200190815260200160002060006101000a81548173ffffffffffffffffffffffffffffffffffffffff021916908373ffffffffffffffffffffffffffffffffffffffff1602179055505b50565b6129116001826000015461293290919063ffffffff16565b816000018190555050565b6001816000016000828254019250508190555050565b600061297483836040518060400160405280601e81526020017f536166654d6174683a207375627472616374696f6e206f766572666c6f770000815250612c3e565b905092915050565b6060808690506060869050606086905060608690506060869050606081518351855187518951010101016040519080825280601f01601f1916602001820160405280156129d85781602001600182028038833980820191505090505b509050606081905060008090506000809050600090505b8851811015612a5d57888181518110612a0457fe5b602001015160f81c60f81b838380600101945081518110612a2157fe5b60200101907effffffffffffffffffffffffffffffffffffffffffffffffffffffffffffff1916908160001a90535080806001019150506129ef565b600090505b8751811015612ad057878181518110612a7757fe5b602001015160f81c60f81b838380600101945081518110612a9457fe5b60200101907effffffffffffffffffffffffffffffffffffffffffffffffffffffffffffff1916908160001a9053508080600101915050612a62565b600090505b8651811015612b4357868181518110612aea57fe5b602001015160f81c60f81b838380600101945081518110612b0757fe5b60200101907effffffffffffffffffffffffffffffffffffffffffffffffffffffffffffff1916908160001a9053508080600101915050612ad5565b600090505b8551811015612bb657858181518110612b5d57fe5b602001015160f81c60f81b838380600101945081518110612b7a57fe5b60200101907effffffffffffffffffffffffffffffffffffffffffffffffffffffffffffff1916908160001a9053508080600101915050612b48565b600090505b8451811015612c2957848181518110612bd057fe5b602001015160f81c60f81b838380600101945081518110612bed57fe5b60200101907effffffffffffffffffffffffffffffffffffffffffffffffffffffffffffff1916908160001a9053508080600101915050612bbb565b82995050505050505050505095945050505050565b6000838311158290612ceb576040517f08c379a00000000000000000000000000000000000000000000000000000000081526004018080602001828103825283818151815260200191508051906020019080838360005b83811015612cb0578082015181840152602081019050612c95565b50505050905090810190601f168015612cdd5780820380516001836020036101000a031916815260200191505b509250505060405180910390fd5b5060008385039050809150509392505050565b828054600181600116156101000203166002900490600052602060002090601f016020900481019282601f10612d3f57805160ff1916838001178555612d6d565b82800160010185558215612d6d579182015b82811115612d6c578251825591602001919060010190612d51565b5b509050612d7a9190612daa565b5090565b815481835581811115612da557818360005260206000209182019101612da49190612daa565b5b505050565b612dcc91905b80821115612dc8576000816000905550600101612db0565b5090565b90565b63ffffffff60e01b817bffffffffffffffffffffffffffffffffffffffffffffffffffffffff19161415612e0257600080fd5b6001806000837bffffffffffffffffffffffffffffffffffffffffffffffffffffffff19167bffffffffffffffffffffffffffffffffffffffffffffffffffffffff1916815260200190815260200160002060006101000a81548160ff0219169083151502179055505056fe4f776e6572206f6620546f6b656e20494420697320657175616c20746f2074686520746f206164647265737346726f6d206164647266657373206973204e4f54206f776e6572206f662074686520676976656e20746f6b656ea265627a7a72315820f1e68d4e9d03344a8e90c9367d5ce8002d8f600d8e800e22fa3b0f327667936464736f6c6343000510003268747470733a2f2f73332d75732d776573742d322e616d617a6f6e6177732e636f6d2f756461636974792d626c6f636b636861696e2f63617073746f6e652f",
  "source": "pragma solidity ^0.5.0;\n\nimport 'openzeppelin-solidity/contracts/utils/Address.sol';\nimport 'openzeppelin-solidity/contracts/drafts/Counters.sol';\nimport 'openzeppelin-solidity/contracts/math/SafeMath.sol';\nimport 'openzeppelin-solidity/contracts/token/ERC721/IERC721Receiver.sol';\nimport \"./Oraclize.sol\";\n\ncontract Ownable {\n    //  TODO's\n    //  1) create a private '_owner' variable of type address with a public getter function\n    address public _owner;\n   // address public emptyAddress;\n\n  // emptyAddress = address(0)\n\n    //  2) create an internal constructor that sets the _owner var to the creater of the contract \n    constructor() internal {\n         _owner = msg.sender;\n        emit ownershipTransfer(address(0), _owner);\n    }\n    //  3) create an 'onlyOwner' modifier that throws if called by any account other than the owner.\n\n    modifier onlyOwner(){\n        require(msg.sender == _owner,\"Not owner of the contract\");\n        _;\n    }\n    //  4) fill out the transferOwnership function\n\n    //  5) create an event that emits anytime ownerShip is transfered (including in the constructor)\n\n    event ownershipTransfer(address currentOwner, address newOwner);\n\n    function transferOwnership(address newOwner) public onlyOwner {\n        // TODO add functionality to transfer control of the contract to a newOwner.\n        // make sure the new owner is a real address\n       \n        require(newOwner != address(0), \"newOwner is not a real address\");\n        address oldOwner = _owner;\n         _owner = newOwner;\n        emit ownershipTransfer(oldOwner, _owner);\n    }\n\n\n    function retrieveCurrentOwner() public view returns (address){\n         return _owner;\n    }\n    \n       \n    \n    }\n//  TODO's: Create a Pausable contract that inherits from the Ownable contract\n//  1) create a private '_paused' variable of type bool\n\n\n\ncontract Pausable is Ownable {\n   bool private _paused;\n\n//  2) create a public setter using the inherited onlyOwner modifier \n\nfunction pausable(bool isPaused) public onlyOwner  {\n    require(_paused != isPaused, \"paused variable is not false\");\n     _paused = isPaused;\n   \n}\n\n//  3) create an internal constructor that sets the _paused variable to false\n    constructor() internal{\n        _paused = false;\n    }\n\n\n//  4) create 'whenNotPaused' & 'paused' modifier that throws in the appropriate situation\nmodifier whenNotPaused(){\n    require(!_paused, \"paused is not false\");\n    \n    _;    \n}\n\nmodifier paused(){\n   require(_paused, \"paused is not true\");\n   \n   _;\n}\n//  5) create a Paused & Unpaused event that emits the address that triggered the event\nevent Paused(address caller);\nevent Unpaused (address caller);\n\n}\n\ncontract ERC165 {\n\n    bytes4 private constant _INTERFACE_ID_ERC165 = 0x01ffc9a7;\n    /*\n     * 0x01ffc9a7 ===\n     *     bytes4(keccak256('supportsInterface(bytes4)'))\n     */\n\n    /**\n     * @dev a mapping of interface id to whether or not it's supported\n     */\n    mapping(bytes4 => bool) private _supportedInterfaces;\n\n    /**\n     * @dev A contract implementing SupportsInterfaceWithLookup\n     * implement ERC165 itself\n     */\n    constructor () internal {\n        _registerInterface(_INTERFACE_ID_ERC165);\n    }\n\n    /**\n     * @dev implement supportsInterface(bytes4) using a lookup table\n     */\n    function supportsInterface(bytes4 interfaceId) external view returns (bool) {\n        return _supportedInterfaces[interfaceId];\n    }\n\n    /**\n     * @dev internal method for registering an interface\n     */\n    function _registerInterface(bytes4 interfaceId) internal {\n        require(interfaceId != 0xffffffff);\n        _supportedInterfaces[interfaceId] = true;\n    }\n}\n\n\n\n\ncontract ERC721 is Pausable, ERC165 {\n\n    event Transfer(address indexed from, address indexed to, uint256 indexed tokenId);\n\n    event Approval(address indexed owner, address indexed approved, uint256 indexed tokenId);\n\n    event ApprovalForAll(address indexed owner, address indexed operator, bool approved);\n    \n    using SafeMath for uint256;\n    using Address for address;\n    using Counters for Counters.Counter;\n\n    // Equals to `bytes4(keccak256(\"onERC721Received(address,address,uint256,bytes)\"))`\n    // which can be also obtained as `IERC721Receiver(0).onERC721Received.selector`\n    bytes4 private constant _ERC721_RECEIVED = 0x150b7a02;\n\n    // Mapping from token ID to owner\n    mapping (uint256 => address) private _tokenOwner;\n\n    // Mapping from token ID to approved address\n    mapping (uint256 => address) private _tokenApprovals;\n\n    // Mapping from owner to number of owned token\n    // IMPORTANT: this mapping uses Counters lib which is used to protect overflow when incrementing/decrementing a uint\n    // use the following functions when interacting with Counters: increment(), decrement(), and current() to get the value\n    // see: https://github.com/OpenZeppelin/openzeppelin-solidity/blob/master/contracts/drafts/Counters.sol\n    mapping (address => Counters.Counter) private _ownedTokensCount;\n\n    // Mapping from owner to operator approvals\n    mapping (address => mapping (address => bool)) private _operatorApprovals;\n\n    bytes4 private constant _INTERFACE_ID_ERC721 = 0x80ac58cd;\n\n  \n\n    constructor () public {\n        // register the supported interfaces to conform to ERC721 via ERC165\n        _registerInterface(_INTERFACE_ID_ERC721);\n    }\n\n    function balanceOf(address owner) public view returns (uint256) {\n        // TODO return the token balance of given address\n        // TIP: remember the functions to use for Counters. you can refresh yourself with the link above\n        return _ownedTokensCount[owner].current();\n    }\n\n    function ownerOf(uint256 tokenId) public view returns (address) {\n        // TODO return the owner of the given tokenId\n        return _tokenOwner[tokenId];\n    }\n\n//    @dev Approves another address to transfer the given token ID\n    function approve(address to, uint256 tokenId) public {\n        \n        // TODO require the given address to not be the owner of the tokenId\n        \n        address ownerOfTokenId = ownerOf(tokenId);\n\n        require(to != ownerOfTokenId, \"Owner of Token ID is equal to the to address\" );\n\n        // TODO require the msg sender to be the owner of the contract or isApprovedForAll() to be true\n        require(msg.sender == ownerOfTokenId || isApprovedForAll(ownerOfTokenId, msg.sender));\n\n        // TODO add 'to' address to token approvals\n        _tokenApprovals[tokenId] = to;\n\n\n        // TODO emit Approval Event\n      \n\n        emit Approval(msg.sender,to, tokenId);\n\n    }\n\n    function getApproved(uint256 tokenId) public view returns (address) {\n        // TODO return token approval if it exists\n        require(_exists(tokenId), \"Token does not exist\");\n        return _tokenApprovals[tokenId];\n    }\n\n    /**\n     * @dev Sets or unsets the approval of a given operator\n     * An operator is allowed to transfer all tokens of the sender on their behalf\n     * @param to operator address to set the approval\n     * @param approved representing the status of the approval to be set\n     */\n    function setApprovalForAll(address to, bool approved) public {\n        require(to != msg.sender);\n        _operatorApprovals[msg.sender][to] = approved;\n        emit ApprovalForAll(msg.sender, to, approved);\n    }\n\n    /**\n     * @dev Tells whether an operator is approved by a given owner\n     * @param owner owner address which you want to query the approval of\n     * @param operator operator address which you want to query the approval of\n     * @return bool whether the given operator is approved by the given owner\n     */\n    function isApprovedForAll(address owner, address operator) public view returns (bool) {\n        return _operatorApprovals[owner][operator];\n    }\n\n    function transferFrom(address from, address to, uint256 tokenId) public {\n        require(_isApprovedOrOwner(msg.sender, tokenId));\n\n        _transferFrom(from, to, tokenId);\n    }\n\n    function safeTransferFrom(address from, address to, uint256 tokenId) public {\n        safeTransferFrom(from, to, tokenId, \"\");\n    }\n\n    function safeTransferFrom(address from, address to, uint256 tokenId, bytes memory _data) public {\n        transferFrom(from, to, tokenId);\n        require(_checkOnERC721Received(from, to, tokenId, _data));\n    }\n\n    /**\n     * @dev Returns whether the specified token exists\n     * @param tokenId uint256 ID of the token to query the existence of\n     * @return bool whether the token exists\n     */\n    function _exists(uint256 tokenId) internal view returns (bool) {\n        address owner = _tokenOwner[tokenId];\n        return owner != address(0);\n    }\n\n    /**\n     * @dev Returns whether the given spender can transfer a given token ID\n     * @param spender address of the spender to query\n     * @param tokenId uint256 ID of the token to be transferred\n     * @return bool whether the msg.sender is approved for the given token ID,\n     * is an operator of the owner, or is the owner of the token\n     */\n    function _isApprovedOrOwner(address spender, uint256 tokenId) internal view returns (bool) {\n        address owner = ownerOf(tokenId);\n        return (spender == owner || getApproved(tokenId) == spender || isApprovedForAll(owner, spender));\n    }\n\n    // @dev Internal function to mint a new token\n    // TIP: remember the functions to use for Counters. you can refresh yourself with the link above\n    function _mint(address to, uint256 tokenId) internal {\n\n        // TODO revert if given tokenId already exists or given address is invalid\n        require(!_exists(tokenId), \"Token already exists\" );\n        require(to != address(0), \"Address given is invalid\");\n  \n        // TODO mint tokenId to given address & increase token count of owner\n        _tokenOwner[tokenId] = to;\n        // token minted\n        _ownedTokensCount[to].increment();\n\n        // TODO emit Transfer event\n         emit Transfer(address(0), to, tokenId);\n    }\n\n    // @dev Internal function to transfer ownership of a given token ID to another address.\n    // TIP: remember the functions to use for Counters. you can refresh yourself with the link above\n    function _transferFrom(address from, address to, uint256 tokenId) internal {\n\n        // TODO: require from address is the owner of the given token\n        require(from == ownerOf(tokenId), \"From addrfess is NOT owner of the given token\");\n\n        // TODO: require token is being transfered to valid address\n        require(to != address(0), \"transfer to address is not valid\");\n        \n        // TODO: clear approval\n        _clearApproval(tokenId);\n\n\n        // TODO: update token counts & transfer ownership of the token ID \n         _ownedTokensCount[from].decrement();\n        _ownedTokensCount[to].increment();\n        _tokenOwner[tokenId] = to;\n\n        // TODO: emit correct event\n         emit Transfer(from, to, tokenId); \n    }\n\n    /**\n     * @dev Internal function to invoke `onERC721Received` on a target address\n     * The call is not executed if the target address is not a contract\n     * @param from address representing the previous owner of the given token ID\n     * @param to target address that will receive the tokens\n     * @param tokenId uint256 ID of the token to be transferred\n     * @param _data bytes optional data to send along with the call\n     * @return bool whether the call correctly returned the expected magic value\n     */\n    function _checkOnERC721Received(address from, address to, uint256 tokenId, bytes memory _data)\n        internal returns (bool)\n    {\n        if (!to.isContract()) {\n            return true;\n        }\n\n        bytes4 retval = IERC721Receiver(to).onERC721Received(msg.sender, from, tokenId, _data);\n        return (retval == _ERC721_RECEIVED);\n    }\n\n    // @dev Private function to clear current approval of a given token ID\n    function _clearApproval(uint256 tokenId) private {\n        if (_tokenApprovals[tokenId] != address(0)) {\n            _tokenApprovals[tokenId] = address(0);\n        }\n    }\n}\n\ncontract ERC721Enumerable is ERC165, ERC721 {\n    // Mapping from owner to list of owned token IDs\n    mapping(address => uint256[]) private _ownedTokens;\n\n    // Mapping from token ID to index of the owner tokens list\n    mapping(uint256 => uint256) private _ownedTokensIndex;\n\n    // Array with all token ids, used for enumeration\n    uint256[] private _allTokens;\n\n    // Mapping from token id to position in the allTokens array\n    mapping(uint256 => uint256) private _allTokensIndex;\n\n    bytes4 private constant _INTERFACE_ID_ERC721_ENUMERABLE = 0x780e9d63;\n    /*\n     * 0x780e9d63 ===\n     *     bytes4(keccak256('totalSupply()')) ^\n     *     bytes4(keccak256('tokenOfOwnerByIndex(address,uint256)')) ^\n     *     bytes4(keccak256('tokenByIndex(uint256)'))\n     */\n\n    /**\n     * @dev Constructor function\n     */\n    constructor () public {\n        // register the supported interface to conform to ERC721Enumerable via ERC165\n        _registerInterface(_INTERFACE_ID_ERC721_ENUMERABLE);\n    }\n\n    /**\n     * @dev Gets the token ID at a given index of the tokens list of the requested owner\n     * @param owner address owning the tokens list to be accessed\n     * @param index uint256 representing the index to be accessed of the requested tokens list\n     * @return uint256 token ID at the given index of the tokens list owned by the requested address\n     */\n    function tokenOfOwnerByIndex(address owner, uint256 index) public view returns (uint256) {\n        require(index < balanceOf(owner));\n        return _ownedTokens[owner][index];\n    }\n\n    /**\n     * @dev Gets the total amount of tokens stored by the contract\n     * @return uint256 representing the total amount of tokens\n     */\n    function totalSupply() public view returns (uint256) {\n        return _allTokens.length;\n    }\n\n    /**\n     * @dev Gets the token ID at a given index of all the tokens in this contract\n     * Reverts if the index is greater or equal to the total number of tokens\n     * @param index uint256 representing the index to be accessed of the tokens list\n     * @return uint256 token ID at the given index of the tokens list\n     */\n    function tokenByIndex(uint256 index) public view returns (uint256) {\n        require(index < totalSupply());\n        return _allTokens[index];\n    }\n\n    /**\n     * @dev Internal function to transfer ownership of a given token ID to another address.\n     * As opposed to transferFrom, this imposes no restrictions on msg.sender.\n     * @param from current owner of the token\n     * @param to address to receive the ownership of the given token ID\n     * @param tokenId uint256 ID of the token to be transferred\n     */\n    function _transferFrom(address from, address to, uint256 tokenId) internal {\n        super._transferFrom(from, to, tokenId);\n\n        _removeTokenFromOwnerEnumeration(from, tokenId);\n\n        _addTokenToOwnerEnumeration(to, tokenId);\n    }\n\n    /**\n     * @dev Internal function to mint a new token\n     * Reverts if the given token ID already exists\n     * @param to address the beneficiary that will own the minted token\n     * @param tokenId uint256 ID of the token to be minted\n     */\n    function _mint(address to, uint256 tokenId) internal {\n        super._mint(to, tokenId);\n\n        _addTokenToOwnerEnumeration(to, tokenId);\n\n        _addTokenToAllTokensEnumeration(tokenId);\n    }\n\n    /**\n     * @dev Gets the list of token IDs of the requested owner\n     * @param owner address owning the tokens\n     * @return uint256[] List of token IDs owned by the requested address\n     */\n    function _tokensOfOwner(address owner) internal view returns (uint256[] storage) {\n        return _ownedTokens[owner];\n    }\n\n    /**\n     * @dev Private function to add a token to this extension's ownership-tracking data structures.\n     * @param to address representing the new owner of the given token ID\n     * @param tokenId uint256 ID of the token to be added to the tokens list of the given address\n     */\n    function _addTokenToOwnerEnumeration(address to, uint256 tokenId) private {\n        _ownedTokensIndex[tokenId] = _ownedTokens[to].length;\n        _ownedTokens[to].push(tokenId);\n    }\n\n    /**\n     * @dev Private function to add a token to this extension's token tracking data structures.\n     * @param tokenId uint256 ID of the token to be added to the tokens list\n     */\n    function _addTokenToAllTokensEnumeration(uint256 tokenId) private {\n        _allTokensIndex[tokenId] = _allTokens.length;\n        _allTokens.push(tokenId);\n    }\n\n    /**\n     * @dev Private function to remove a token from this extension's ownership-tracking data structures. Note that\n     * while the token is not assigned a new owner, the _ownedTokensIndex mapping is _not_ updated: this allows for\n     * gas optimizations e.g. when performing a transfer operation (avoiding double writes).\n     * This has O(1) time complexity, but alters the order of the _ownedTokens array.\n     * @param from address representing the previous owner of the given token ID\n     * @param tokenId uint256 ID of the token to be removed from the tokens list of the given address\n     */\n    function _removeTokenFromOwnerEnumeration(address from, uint256 tokenId) private {\n        // To prevent a gap in from's tokens array, we store the last token in the index of the token to delete, and\n        // then delete the last slot (swap and pop).\n\n        uint256 lastTokenIndex = _ownedTokens[from].length.sub(1);\n        uint256 tokenIndex = _ownedTokensIndex[tokenId];\n\n        // When the token to delete is the last token, the swap operation is unnecessary\n        if (tokenIndex != lastTokenIndex) {\n            uint256 lastTokenId = _ownedTokens[from][lastTokenIndex];\n\n            _ownedTokens[from][tokenIndex] = lastTokenId; // Move the last token to the slot of the to-delete token\n            _ownedTokensIndex[lastTokenId] = tokenIndex; // Update the moved token's index\n        }\n\n        // This also deletes the contents at the last position of the array\n        _ownedTokens[from].length--;\n\n        // Note that _ownedTokensIndex[tokenId] hasn't been cleared: it still points to the old slot (now occupied by\n        // lastTokenId, or just over the end of the array if the token was the last one).\n    }\n\n    /**\n     * @dev Private function to remove a token from this extension's token tracking data structures.\n     * This has O(1) time complexity, but alters the order of the _allTokens array.\n     * @param tokenId uint256 ID of the token to be removed from the tokens list\n     */\n    function _removeTokenFromAllTokensEnumeration(uint256 tokenId) private {\n        // To prevent a gap in the tokens array, we store the last token in the index of the token to delete, and\n        // then delete the last slot (swap and pop).\n\n        uint256 lastTokenIndex = _allTokens.length.sub(1);\n        uint256 tokenIndex = _allTokensIndex[tokenId];\n\n        // When the token to delete is the last token, the swap operation is unnecessary. However, since this occurs so\n        // rarely (when the last minted token is burnt) that we still do the swap here to avoid the gas cost of adding\n        // an 'if' statement (like in _removeTokenFromOwnerEnumeration)\n        uint256 lastTokenId = _allTokens[lastTokenIndex];\n\n        _allTokens[tokenIndex] = lastTokenId; // Move the last token to the slot of the to-delete token\n        _allTokensIndex[lastTokenId] = tokenIndex; // Update the moved token's index\n\n        // This also deletes the contents at the last position of the array\n        _allTokens.length--;\n        _allTokensIndex[tokenId] = 0;\n    }\n}\n\ncontract ERC721Metadata is ERC721Enumerable, usingOraclize {\n    \n    // TODO: Create private vars for token _name, _symbol, and _baseTokenURI (string)\n\n    string private _name;\n    string private _symbol;\n    string private _baseTokenURI;\n\n    // TODO: create private mapping of tokenId's to token uri's called '_tokenURIs'\n    mapping  (uint256  => string ) private _tokenURIs;\n\n    bytes4 private constant _INTERFACE_ID_ERC721_METADATA = 0x5b5e139f;\n    /*\n     * 0x5b5e139f ===\n     *     bytes4(keccak256('name()')) ^\n     *     bytes4(keccak256('symbol()')) ^\n     *     bytes4(keccak256('tokenURI(uint256)'))\n     */\n\n\n    constructor (string memory name, string memory symbol, string memory baseTokenURI) public {\n        // TODO: set instance var values\n        _name = name;\n        _symbol = symbol;\n        _baseTokenURI = baseTokenURI;\n       super._registerInterface(_INTERFACE_ID_ERC721_METADATA);\n    }\n\n    // TODO: create external getter functions for name, symbol, and baseTokenURI\n\n    function name() external view returns (string memory ){\n        return _name;\n    }\n\n    function symbol() external view returns (string memory ){\n        return _symbol;\n    }\n\n    function baseTokenURI () external view returns (string memory){\n        return _baseTokenURI;\n    }\n\n    function tokenURI(uint256 tokenId) external view returns (string memory) {\n        require(_exists(tokenId));\n        return _tokenURIs[tokenId];\n    }\n\n\n    // TODO: Create an internal function to set the tokenURI of a specified tokenId\n    // It should be the _baseTokenURI + the tokenId in string form\n    // TIP #1: use strConcat() from the imported oraclizeAPI lib to set the complete token URI\n    // TIP #2: you can also use uint2str() to convert a uint to a string\n        // see https://github.com/oraclize/ethereum-api/blob/master/oraclizeAPI_0.5.sol for strConcat()\n    // require the token exists before setting\n\n     function tokenURISet(uint256 tokenId) internal {\n           // require the token exists before setting\n        require(_exists(tokenId), \"This is an invalid token id\");\n        _tokenURIs[tokenId] = strConcat(_baseTokenURI, uint2str(tokenId));\n    }\n\n\n}\n\n//  TODO's: Create CustomERC721Token contract that inherits from the ERC721Metadata contract. You can name this contract as you please\n//  1) Pass in appropriate values for the inherited ERC721Metadata contract\n//      - make the base token uri: https://s3-us-west-2.amazonaws.com/udacity-blockchain/capstone/\n//  2) create a public mint() that does the following:\n//      -can only be executed by the contract owner\n//      -takes in a 'to' address, tokenId, and tokenURI as parameters\n//      -returns a true boolean upon completion of the function\n//      -calls the superclass mint and setTokenURI functions\n\ncontract  CustomERC721Token is ERC721Metadata (\"RealEstate NFT Tokens\", \"RENT\", \"https://s3-us-west-2.amazonaws.com/udacity-blockchain/capstone/\"){\n//    -takes in a 'to' address, tokenId, and tokenURI as parameters\n//(\"RealEstate NFT Tokens\", \"RENT\", \"https://s3-us-west-2.amazonaws.com/udacity-blockchain/capstone/\")\n      //  constructor(string memory name, string memory symbol) \n      //  ERC721Metadata(name, symbol, \"https://s3-us-west-2.amazonaws.com/udacity-blockchain/capstone/\")\n      //  public\n      //  {\n\n      //  }\n\n      \n       function mint(address to, uint256 tokenId) public onlyOwner  returns (bool) {\n       // -calls the superclass mint and setTokenURI functions\n         super._mint(to, tokenId);\n         tokenURISet(tokenId);\n        // -returns a true boolean upon completion of the function\n        return true;\n    }\n}\n\n",
  "sourcePath": "/Users/jayc/Desktop/Blockchain-Capstone/eth-contracts/contracts/ERC721Mintable.sol",
  "compiler": {
    "name": "solc",
    "version": "0.5.16+commit.9c3226ce.Emscripten.clang"
  },
  "schemaVersion": "3.4.4",
  "updatedAt": "2022-08-03T23:15:55.762Z",
  "devdoc": {
    "methods": {
      "isApprovedForAll(address,address)": {
        "details": "Tells whether an operator is approved by a given owner",
        "params": {
          "operator": "operator address which you want to query the approval of",
          "owner": "owner address which you want to query the approval of"
        },
        "return": "bool whether the given operator is approved by the given owner"
      },
      "setApprovalForAll(address,bool)": {
        "details": "Sets or unsets the approval of a given operator An operator is allowed to transfer all tokens of the sender on their behalf",
        "params": {
          "approved": "representing the status of the approval to be set",
          "to": "operator address to set the approval"
        }
      },
      "supportsInterface(bytes4)": {
        "details": "implement supportsInterface(bytes4) using a lookup table"
      },
      "tokenByIndex(uint256)": {
        "details": "Gets the token ID at a given index of all the tokens in this contract Reverts if the index is greater or equal to the total number of tokens",
        "params": {
          "index": "uint256 representing the index to be accessed of the tokens list"
        },
        "return": "uint256 token ID at the given index of the tokens list"
      },
      "tokenOfOwnerByIndex(address,uint256)": {
        "details": "Gets the token ID at a given index of the tokens list of the requested owner",
        "params": {
          "index": "uint256 representing the index to be accessed of the requested tokens list",
          "owner": "address owning the tokens list to be accessed"
        },
        "return": "uint256 token ID at the given index of the tokens list owned by the requested address"
      },
      "totalSupply()": {
        "details": "Gets the total amount of tokens stored by the contract",
        "return": "uint256 representing the total amount of tokens"
      }
    }
  },
  "userdoc": {
    "methods": {}
  }
}