{
  "contractName": "SolnSquareVerifier",
  "abi": [
    {
      "inputs": [],
      "payable": false,
      "stateMutability": "nonpayable",
      "type": "constructor"
    },
    {
      "anonymous": false,
      "inputs": [
        {
          "indexed": true,
          "internalType": "address",
          "name": "owner",
          "type": "address"
        },
        {
          "indexed": true,
          "internalType": "address",
          "name": "approved",
          "type": "address"
        },
        {
          "indexed": true,
          "internalType": "uint256",
          "name": "tokenId",
          "type": "uint256"
        }
      ],
      "name": "Approval",
      "type": "event"
    },
    {
      "anonymous": false,
      "inputs": [
        {
          "indexed": true,
          "internalType": "address",
          "name": "owner",
          "type": "address"
        },
        {
          "indexed": true,
          "internalType": "address",
          "name": "operator",
          "type": "address"
        },
        {
          "indexed": false,
          "internalType": "bool",
          "name": "approved",
          "type": "bool"
        }
      ],
      "name": "ApprovalForAll",
      "type": "event"
    },
    {
      "anonymous": false,
      "inputs": [
        {
          "indexed": false,
          "internalType": "address",
          "name": "caller",
          "type": "address"
        }
      ],
      "name": "Paused",
      "type": "event"
    },
    {
      "anonymous": false,
      "inputs": [
        {
          "indexed": false,
          "internalType": "uint256",
          "name": "index",
          "type": "uint256"
        },
        {
          "indexed": false,
          "internalType": "address",
          "name": "_address",
          "type": "address"
        }
      ],
      "name": "SolutionAdded",
      "type": "event"
    },
    {
      "anonymous": false,
      "inputs": [
        {
          "indexed": true,
          "internalType": "address",
          "name": "from",
          "type": "address"
        },
        {
          "indexed": true,
          "internalType": "address",
          "name": "to",
          "type": "address"
        },
        {
          "indexed": true,
          "internalType": "uint256",
          "name": "tokenId",
          "type": "uint256"
        }
      ],
      "name": "Transfer",
      "type": "event"
    },
    {
      "anonymous": false,
      "inputs": [
        {
          "indexed": false,
          "internalType": "address",
          "name": "caller",
          "type": "address"
        }
      ],
      "name": "Unpaused",
      "type": "event"
    },
    {
      "anonymous": false,
      "inputs": [
        {
          "indexed": false,
          "internalType": "string",
          "name": "s",
          "type": "string"
        }
      ],
      "name": "Verified",
      "type": "event"
    },
    {
      "anonymous": false,
      "inputs": [
        {
          "indexed": false,
          "internalType": "address",
          "name": "currentOwner",
          "type": "address"
        },
        {
          "indexed": false,
          "internalType": "address",
          "name": "newOwner",
          "type": "address"
        }
      ],
      "name": "ownershipTransfer",
      "type": "event"
    },
    {
      "constant": false,
      "inputs": [
        {
          "internalType": "bytes32",
          "name": "_myid",
          "type": "bytes32"
        },
        {
          "internalType": "string",
          "name": "_result",
          "type": "string"
        }
      ],
      "name": "__callback",
      "outputs": [],
      "payable": false,
      "stateMutability": "nonpayable",
      "type": "function"
    },
    {
      "constant": false,
      "inputs": [
        {
          "internalType": "bytes32",
          "name": "_myid",
          "type": "bytes32"
        },
        {
          "internalType": "string",
          "name": "_result",
          "type": "string"
        },
        {
          "internalType": "bytes",
          "name": "_proof",
          "type": "bytes"
        }
      ],
      "name": "__callback",
      "outputs": [],
      "payable": false,
      "stateMutability": "nonpayable",
      "type": "function"
    },
    {
      "constant": true,
      "inputs": [],
      "name": "_owner",
      "outputs": [
        {
          "internalType": "address",
          "name": "",
          "type": "address"
        }
      ],
      "payable": false,
      "stateMutability": "view",
      "type": "function"
    },
    {
      "constant": false,
      "inputs": [
        {
          "internalType": "address",
          "name": "to",
          "type": "address"
        },
        {
          "internalType": "uint256",
          "name": "tokenId",
          "type": "uint256"
        }
      ],
      "name": "approve",
      "outputs": [],
      "payable": false,
      "stateMutability": "nonpayable",
      "type": "function"
    },
    {
      "constant": true,
      "inputs": [
        {
          "internalType": "address",
          "name": "owner",
          "type": "address"
        }
      ],
      "name": "balanceOf",
      "outputs": [
        {
          "internalType": "uint256",
          "name": "",
          "type": "uint256"
        }
      ],
      "payable": false,
      "stateMutability": "view",
      "type": "function"
    },
    {
      "constant": true,
      "inputs": [],
      "name": "baseTokenURI",
      "outputs": [
        {
          "internalType": "string",
          "name": "",
          "type": "string"
        }
      ],
      "payable": false,
      "stateMutability": "view",
      "type": "function"
    },
    {
      "constant": true,
      "inputs": [
        {
          "internalType": "uint256",
          "name": "tokenId",
          "type": "uint256"
        }
      ],
      "name": "getApproved",
      "outputs": [
        {
          "internalType": "address",
          "name": "",
          "type": "address"
        }
      ],
      "payable": false,
      "stateMutability": "view",
      "type": "function"
    },
    {
      "constant": true,
      "inputs": [
        {
          "internalType": "address",
          "name": "owner",
          "type": "address"
        },
        {
          "internalType": "address",
          "name": "operator",
          "type": "address"
        }
      ],
      "name": "isApprovedForAll",
      "outputs": [
        {
          "internalType": "bool",
          "name": "",
          "type": "bool"
        }
      ],
      "payable": false,
      "stateMutability": "view",
      "type": "function"
    },
    {
      "constant": true,
      "inputs": [],
      "name": "name",
      "outputs": [
        {
          "internalType": "string",
          "name": "",
          "type": "string"
        }
      ],
      "payable": false,
      "stateMutability": "view",
      "type": "function"
    },
    {
      "constant": true,
      "inputs": [
        {
          "internalType": "uint256",
          "name": "tokenId",
          "type": "uint256"
        }
      ],
      "name": "ownerOf",
      "outputs": [
        {
          "internalType": "address",
          "name": "",
          "type": "address"
        }
      ],
      "payable": false,
      "stateMutability": "view",
      "type": "function"
    },
    {
      "constant": false,
      "inputs": [
        {
          "internalType": "bool",
          "name": "isPaused",
          "type": "bool"
        }
      ],
      "name": "pausable",
      "outputs": [
        {
          "internalType": "bool",
          "name": "",
          "type": "bool"
        }
      ],
      "payable": false,
      "stateMutability": "nonpayable",
      "type": "function"
    },
    {
      "constant": true,
      "inputs": [],
      "name": "retrieveCurrentOwner",
      "outputs": [
        {
          "internalType": "address",
          "name": "",
          "type": "address"
        }
      ],
      "payable": false,
      "stateMutability": "view",
      "type": "function"
    },
    {
      "constant": false,
      "inputs": [
        {
          "internalType": "address",
          "name": "from",
          "type": "address"
        },
        {
          "internalType": "address",
          "name": "to",
          "type": "address"
        },
        {
          "internalType": "uint256",
          "name": "tokenId",
          "type": "uint256"
        }
      ],
      "name": "safeTransferFrom",
      "outputs": [],
      "payable": false,
      "stateMutability": "nonpayable",
      "type": "function"
    },
    {
      "constant": false,
      "inputs": [
        {
          "internalType": "address",
          "name": "from",
          "type": "address"
        },
        {
          "internalType": "address",
          "name": "to",
          "type": "address"
        },
        {
          "internalType": "uint256",
          "name": "tokenId",
          "type": "uint256"
        },
        {
          "internalType": "bytes",
          "name": "_data",
          "type": "bytes"
        }
      ],
      "name": "safeTransferFrom",
      "outputs": [],
      "payable": false,
      "stateMutability": "nonpayable",
      "type": "function"
    },
    {
      "constant": false,
      "inputs": [
        {
          "internalType": "address",
          "name": "to",
          "type": "address"
        },
        {
          "internalType": "bool",
          "name": "approved",
          "type": "bool"
        }
      ],
      "name": "setApprovalForAll",
      "outputs": [],
      "payable": false,
      "stateMutability": "nonpayable",
      "type": "function"
    },
    {
      "constant": true,
      "inputs": [
        {
          "internalType": "bytes4",
          "name": "interfaceId",
          "type": "bytes4"
        }
      ],
      "name": "supportsInterface",
      "outputs": [
        {
          "internalType": "bool",
          "name": "",
          "type": "bool"
        }
      ],
      "payable": false,
      "stateMutability": "view",
      "type": "function"
    },
    {
      "constant": true,
      "inputs": [],
      "name": "symbol",
      "outputs": [
        {
          "internalType": "string",
          "name": "",
          "type": "string"
        }
      ],
      "payable": false,
      "stateMutability": "view",
      "type": "function"
    },
    {
      "constant": true,
      "inputs": [
        {
          "internalType": "uint256",
          "name": "index",
          "type": "uint256"
        }
      ],
      "name": "tokenByIndex",
      "outputs": [
        {
          "internalType": "uint256",
          "name": "",
          "type": "uint256"
        }
      ],
      "payable": false,
      "stateMutability": "view",
      "type": "function"
    },
    {
      "constant": true,
      "inputs": [
        {
          "internalType": "address",
          "name": "owner",
          "type": "address"
        },
        {
          "internalType": "uint256",
          "name": "index",
          "type": "uint256"
        }
      ],
      "name": "tokenOfOwnerByIndex",
      "outputs": [
        {
          "internalType": "uint256",
          "name": "",
          "type": "uint256"
        }
      ],
      "payable": false,
      "stateMutability": "view",
      "type": "function"
    },
    {
      "constant": true,
      "inputs": [
        {
          "internalType": "uint256",
          "name": "tokenId",
          "type": "uint256"
        }
      ],
      "name": "tokenURI",
      "outputs": [
        {
          "internalType": "string",
          "name": "",
          "type": "string"
        }
      ],
      "payable": false,
      "stateMutability": "view",
      "type": "function"
    },
    {
      "constant": true,
      "inputs": [],
      "name": "totalSupply",
      "outputs": [
        {
          "internalType": "uint256",
          "name": "",
          "type": "uint256"
        }
      ],
      "payable": false,
      "stateMutability": "view",
      "type": "function"
    },
    {
      "constant": false,
      "inputs": [
        {
          "internalType": "address",
          "name": "from",
          "type": "address"
        },
        {
          "internalType": "address",
          "name": "to",
          "type": "address"
        },
        {
          "internalType": "uint256",
          "name": "tokenId",
          "type": "uint256"
        }
      ],
      "name": "transferFrom",
      "outputs": [],
      "payable": false,
      "stateMutability": "nonpayable",
      "type": "function"
    },
    {
      "constant": false,
      "inputs": [
        {
          "internalType": "address",
          "name": "newOwner",
          "type": "address"
        }
      ],
      "name": "transferOwnership",
      "outputs": [],
      "payable": false,
      "stateMutability": "nonpayable",
      "type": "function"
    },
    {
      "constant": false,
      "inputs": [
        {
          "internalType": "uint256[2]",
          "name": "a",
          "type": "uint256[2]"
        },
        {
          "internalType": "uint256[2][2]",
          "name": "b",
          "type": "uint256[2][2]"
        },
        {
          "internalType": "uint256[2]",
          "name": "c",
          "type": "uint256[2]"
        },
        {
          "internalType": "uint256[2]",
          "name": "input",
          "type": "uint256[2]"
        }
      ],
      "name": "verifyTx",
      "outputs": [
        {
          "internalType": "bool",
          "name": "r",
          "type": "bool"
        }
      ],
      "payable": false,
      "stateMutability": "nonpayable",
      "type": "function"
    },
    {
      "constant": false,
      "inputs": [
        {
          "internalType": "address",
          "name": "_address",
          "type": "address"
        },
        {
          "internalType": "uint256",
          "name": "_index",
          "type": "uint256"
        },
        {
          "internalType": "uint256[2]",
          "name": "a",
          "type": "uint256[2]"
        },
        {
          "internalType": "uint256[2][2]",
          "name": "b",
          "type": "uint256[2][2]"
        },
        {
          "internalType": "uint256[2]",
          "name": "c",
          "type": "uint256[2]"
        },
        {
          "internalType": "uint256[2]",
          "name": "input",
          "type": "uint256[2]"
        }
      ],
      "name": "addSolution",
      "outputs": [],
      "payable": false,
      "stateMutability": "nonpayable",
      "type": "function"
    },
    {
      "constant": false,
      "inputs": [
        {
          "internalType": "address",
          "name": "_address",
          "type": "address"
        },
        {
          "internalType": "uint256",
          "name": "tokenId",
          "type": "uint256"
        }
      ],
      "name": "mint",
      "outputs": [
        {
          "internalType": "bool",
          "name": "",
          "type": "bool"
        }
      ],
      "payable": false,
      "stateMutability": "nonpayable",
      "type": "function"
    }
  ],
  "bytecode": "0x60806040523480156200001157600080fd5b506040518060400160405280601681526020017f5265616c20457374617465204e465420546f6b656e73000000000000000000008152506040518060400160405280600481526020017f52454e54000000000000000000000000000000000000000000000000000000008152506040518060600160405280603f815260200162005051603f9139336000806101000a81548173ffffffffffffffffffffffffffffffffffffffff021916908373ffffffffffffffffffffffffffffffffffffffff1602179055507f7ee35ffa528a36037ec23ed4b99d479118464d605ffa951ac0441db66273b33260008060009054906101000a900473ffffffffffffffffffffffffffffffffffffffff166040516200012d92919062000534565b60405180910390a160008060146101000a81548160ff021916908315150217905550620001676301ffc9a760e01b6200047260201b60201c565b6200017f6380ac58cd60e01b6200047260201b60201c565b6200019763780e9d6360e01b6200047260201b60201c565b600f8054600181600116156101000203166002900480601f016020809104026020016040519081016040528092919081815260200182805460018160011615610100020316600290048015620002315780601f10620002055761010080835404028352916020019162000231565b820191906000526020600020905b8154815290600101906020018083116200021357829003601f168201915b5050505050925060108054600181600116156101000203166002900480601f016020809104026020016040519081016040528092919081815260200182805460018160011615610100020316600290048015620002d25780601f10620002a657610100808354040283529160200191620002d2565b820191906000526020600020905b815481529060010190602001808311620002b457829003601f168201915b5050505050915060118054600181600116156101000203166002900480601f016020809104026020016040519081016040528092919081815260200182805460018160011615610100020316600290048015620003735780601f10620003475761010080835404028352916020019162000373565b820191906000526020600020905b8154815290600101906020018083116200035557829003601f168201915b5050505050905062000392635b5e139f60e01b6200047260201b60201c565b5050506013604051806060016040528060008152602001600073ffffffffffffffffffffffffffffffffffffffff16815260200160001515815250908060018154018082558091505090600182039060005260206000209060020201600090919290919091506000820151816000015560208201518160010160006101000a81548173ffffffffffffffffffffffffffffffffffffffff021916908373ffffffffffffffffffffffffffffffffffffffff16021790555060408201518160010160146101000a81548160ff021916908315150217905550505050620005d1565b63ffffffff60e01b817bffffffffffffffffffffffffffffffffffffffffffffffffffffffff19161415620004a657600080fd5b6001806000837bffffffffffffffffffffffffffffffffffffffffffffffffffffffff19167bffffffffffffffffffffffffffffffffffffffffffffffffffffffff1916815260200190815260200160002060006101000a81548160ff02191690831515021790555050565b6200051d8162000595565b82525050565b6200052e8162000561565b82525050565b60006040820190506200054b600083018562000512565b6200055a602083018462000523565b9392505050565b60006200056e8262000575565b9050919050565b600073ffffffffffffffffffffffffffffffffffffffff82169050919050565b6000620005a282620005a9565b9050919050565b6000620005b682620005bd565b9050919050565b6000620005ca8262000575565b9050919050565b614a7080620005e16000396000f3fe608060405234801561001057600080fd5b506004361061018e5760003560e01c80634f6ccce7116100de578063aa59c54611610097578063c87b56dd11610071578063c87b56dd146104b9578063d547cfb7146104e9578063e985e9c514610507578063f2fde38b146105375761018e565b8063aa59c54614610461578063b2bdfa7b1461047f578063b88d4fde1461049d5761018e565b80634f6ccce714610367578063621e9ec0146103975780636352211e146103c757806370a08231146103f757806395d89b4114610427578063a22cb465146104455761018e565b8063272870ac1161014b57806338bbfa501161012557806338bbfa50146102e35780633eec14da146102ff57806340c10f191461031b57806342842e0e1461034b5761018e565b8063272870ac1461026757806327dc297e146102975780632f745c59146102b35761018e565b806301ffc9a71461019357806306fdde03146101c3578063081812fc146101e1578063095ea7b31461021157806318160ddd1461022d57806323b872dd1461024b575b600080fd5b6101ad60048036036101a89190810190613ca5565b610553565b6040516101ba9190614488565b60405180910390f35b6101cb6105bb565b6040516101d891906144a3565b60405180910390f35b6101fb60048036036101f69190810190613cf7565b61065d565b60405161020891906143f8565b60405180910390f35b61022b60048036036102269190810190613a7c565b6106e2565b005b61023561087a565b60405161024291906146c5565b60405180910390f35b61026560048036036102609190810190613976565b610887565b005b610281600480360361027c9190810190613ba9565b6108aa565b60405161028e9190614488565b60405180910390f35b6102b160048036036102ac9190810190613bd2565b6109b7565b005b6102cd60048036036102c89190810190613a7c565b6109fa565b6040516102da91906146c5565b60405180910390f35b6102fd60048036036102f89190810190613c26565b610a6d565b005b61031960048036036103149190810190613ab8565b610a72565b005b61033560048036036103309190810190613a7c565b610caa565b6040516103429190614488565b60405180910390f35b61036560048036036103609190810190613976565b610ea5565b005b610381600480360361037c9190810190613cf7565b610ec5565b60405161038e91906146c5565b60405180910390f35b6103b160048036036103ac9190810190613b44565b610ef9565b6040516103be9190614488565b60405180910390f35b6103e160048036036103dc9190810190613cf7565b61112a565b6040516103ee91906143f8565b60405180910390f35b610411600480360361040c9190810190613911565b611167565b60405161041e91906146c5565b60405180910390f35b61042f6111b7565b60405161043c91906144a3565b60405180910390f35b61045f600480360361045a9190810190613a40565b611259565b005b61046961138f565b60405161047691906143f8565b60405180910390f35b6104876113b8565b60405161049491906143f8565b60405180910390f35b6104b760048036036104b291908101906139c5565b6113dd565b005b6104d360048036036104ce9190810190613cf7565b611403565b6040516104e091906144a3565b60405180910390f35b6104f16114ca565b6040516104fe91906144a3565b60405180910390f35b610521600480360361051c919081019061393a565b61156c565b60405161052e9190614488565b60405180910390f35b610551600480360361054c9190810190613911565b611600565b005b600060016000837bffffffffffffffffffffffffffffffffffffffffffffffffffffffff19167bffffffffffffffffffffffffffffffffffffffffffffffffffffffff1916815260200190815260200160002060009054906101000a900460ff169050919050565b6060600f8054600181600116156101000203166002900480601f0160208091040260200160405190810160405280929190818152602001828054600181600116156101000203166002900480156106535780601f1061062857610100808354040283529160200191610653565b820191906000526020600020905b81548152906001019060200180831161063657829003601f168201915b5050505050905090565b60006106688261182b565b6106a7576040517f08c379a000000000000000000000000000000000000000000000000000000000815260040161069e90614525565b60405180910390fd5b6003600083815260200190815260200160002060009054906101000a900473ffffffffffffffffffffffffffffffffffffffff169050919050565b60006106ed8261112a565b90508273ffffffffffffffffffffffffffffffffffffffff168173ffffffffffffffffffffffffffffffffffffffff16141561075e576040517f08c379a000000000000000000000000000000000000000000000000000000000815260040161075590614505565b60405180910390fd5b6000809054906101000a900473ffffffffffffffffffffffffffffffffffffffff1673ffffffffffffffffffffffffffffffffffffffff163373ffffffffffffffffffffffffffffffffffffffff1614806107bf57506107be813361156c565b5b6107c857600080fd5b826003600084815260200190815260200160002060006101000a81548173ffffffffffffffffffffffffffffffffffffffff021916908373ffffffffffffffffffffffffffffffffffffffff160217905550818373ffffffffffffffffffffffffffffffffffffffff163373ffffffffffffffffffffffffffffffffffffffff167f8c5be1e5ebec7d5bd14f71427d1e84f3dd0314c0f7b2291e5b200ac8c7c3b92560405160405180910390a4505050565b6000600880549050905090565b610891338261189d565b61089a57600080fd5b6108a5838383611932565b505050565b60008060009054906101000a900473ffffffffffffffffffffffffffffffffffffffff1673ffffffffffffffffffffffffffffffffffffffff163373ffffffffffffffffffffffffffffffffffffffff161461093b576040517f08c379a0000000000000000000000000000000000000000000000000000000008152600401610932906144e5565b60405180910390fd5b60001515600060149054906101000a900460ff16151514610991576040517f08c379a000000000000000000000000000000000000000000000000000000000815260040161098890614625565b60405180910390fd5b81600060146101000a81548160ff02191690831515021790555060019150819050919050565b6109f6828260006040519080825280601f01601f1916602001820160405280156109f05781602001600182028038833980820191505090505b50610a6d565b5050565b6000610a0583611167565b8210610a1057600080fd5b600660008473ffffffffffffffffffffffffffffffffffffffff1673ffffffffffffffffffffffffffffffffffffffff1681526020019081526020016000208281548110610a5a57fe5b9060005260206000200154905092915050565b505050565b600084848484604051602001610a8b94939291906143aa565b604051602081830303815290604052805190602001209050600015156014600083815260200190815260200160002060009054906101000a900460ff16151514610b0a576040517f08c379a0000000000000000000000000000000000000000000000000000000008152600401610b0190614685565b60405180910390fd5b6000610b1886868686610ef9565b905080610b5a576040517f08c379a0000000000000000000000000000000000000000000000000000000008152600401610b5190614645565b60405180910390fd5b610b62613429565b60405180606001604052808981526020018a73ffffffffffffffffffffffffffffffffffffffff168152602001600015158152509050601381908060018154018082558091505090600182039060005260206000209060020201600090919290919091506000820151816000015560208201518160010160006101000a81548173ffffffffffffffffffffffffffffffffffffffff021916908373ffffffffffffffffffffffffffffffffffffffff16021790555060408201518160010160146101000a81548160ff02191690831515021790555050505060016014600085815260200190815260200160002060006101000a81548160ff0219169083151502179055507f078793128cefb19aac38a33f9e5df39f67716907f6d747e8065545699e0b2b8d888a604051610c979291906146e0565b60405180910390a1505050505050505050565b60008060009054906101000a900473ffffffffffffffffffffffffffffffffffffffff1673ffffffffffffffffffffffffffffffffffffffff163373ffffffffffffffffffffffffffffffffffffffff1614610d3b576040517f08c379a0000000000000000000000000000000000000000000000000000000008152600401610d32906144e5565b60405180910390fd5b8273ffffffffffffffffffffffffffffffffffffffff1660138381548110610d5f57fe5b906000526020600020906002020160010160009054906101000a900473ffffffffffffffffffffffffffffffffffffffff1673ffffffffffffffffffffffffffffffffffffffff1614610de7576040517f08c379a0000000000000000000000000000000000000000000000000000000008152600401610dde906145e5565b60405180910390fd5b6000151560138381548110610df857fe5b906000526020600020906002020160010160149054906101000a900460ff16151514610e59576040517f08c379a0000000000000000000000000000000000000000000000000000000008152600401610e50906145a5565b60405180910390fd5b600160138381548110610e6857fe5b906000526020600020906002020160010160146101000a81548160ff021916908315150217905550610e9a8383611956565b506001905092915050565b610ec0838383604051806020016040528060008152506113dd565b505050565b6000610ecf61087a565b8210610eda57600080fd5b60088281548110610ee757fe5b90600052602060002001549050919050565b6000610f03613462565b604051806040016040528087600060028110610f1b57fe5b6020020151815260200187600160028110610f3257fe5b602002015181525081600001819052506040518060400160405280604051806040016040528088600060028110610f6557fe5b6020020151600060028110610f7657fe5b6020020151815260200188600060028110610f8d57fe5b6020020151600160028110610f9e57fe5b60200201518152508152602001604051806040016040528088600160028110610fc357fe5b6020020151600060028110610fd457fe5b6020020151815260200188600160028110610feb57fe5b6020020151600160028110610ffc57fe5b6020020151815250815250816020018190525060405180604001604052808560006002811061102757fe5b602002015181526020018560016002811061103e57fe5b60200201518152508160400181905250606060026040519080825280602002602001820160405280156110805781602001602082028038833980820191505090505b50905060008090505b60028110156110c85784816002811061109e57fe5b60200201518282815181106110af57fe5b6020026020010181815250508080600101915050611089565b5060006110d58284611a04565b141561111b577f3f3cfdb26fb5f9f1786ab4f1a1f9cd4c0b5e726cbdfc26e495261731aad44e39604051611108906145c5565b60405180910390a1600192505050611122565b6000925050505b949350505050565b60006002600083815260200190815260200160002060009054906101000a900473ffffffffffffffffffffffffffffffffffffffff169050919050565b60006111b0600460008473ffffffffffffffffffffffffffffffffffffffff1673ffffffffffffffffffffffffffffffffffffffff168152602001908152602001600020611b31565b9050919050565b606060108054600181600116156101000203166002900480601f01602080910402602001604051908101604052809291908181526020018280546001816001161561010002031660029004801561124f5780601f106112245761010080835404028352916020019161124f565b820191906000526020600020905b81548152906001019060200180831161123257829003601f168201915b5050505050905090565b3373ffffffffffffffffffffffffffffffffffffffff168273ffffffffffffffffffffffffffffffffffffffff16141561129257600080fd5b80600560003373ffffffffffffffffffffffffffffffffffffffff1673ffffffffffffffffffffffffffffffffffffffff16815260200190815260200160002060008473ffffffffffffffffffffffffffffffffffffffff1673ffffffffffffffffffffffffffffffffffffffff16815260200190815260200160002060006101000a81548160ff0219169083151502179055508173ffffffffffffffffffffffffffffffffffffffff163373ffffffffffffffffffffffffffffffffffffffff167f17307eab39ab6107e8899845ad3d59bd9653f200f220920489ca2b5937696c31836040516113839190614488565b60405180910390a35050565b60008060009054906101000a900473ffffffffffffffffffffffffffffffffffffffff16905090565b6000809054906101000a900473ffffffffffffffffffffffffffffffffffffffff1681565b6113e8848484610887565b6113f484848484611b3f565b6113fd57600080fd5b50505050565b606061140e8261182b565b61141757600080fd5b601260008381526020019081526020016000208054600181600116156101000203166002900480601f0160208091040260200160405190810160405280929190818152602001828054600181600116156101000203166002900480156114be5780601f10611493576101008083540402835291602001916114be565b820191906000526020600020905b8154815290600101906020018083116114a157829003601f168201915b50505050509050919050565b606060118054600181600116156101000203166002900480601f0160208091040260200160405190810160405280929190818152602001828054600181600116156101000203166002900480156115625780601f1061153757610100808354040283529160200191611562565b820191906000526020600020905b81548152906001019060200180831161154557829003601f168201915b5050505050905090565b6000600560008473ffffffffffffffffffffffffffffffffffffffff1673ffffffffffffffffffffffffffffffffffffffff16815260200190815260200160002060008373ffffffffffffffffffffffffffffffffffffffff1673ffffffffffffffffffffffffffffffffffffffff16815260200190815260200160002060009054906101000a900460ff16905092915050565b6000809054906101000a900473ffffffffffffffffffffffffffffffffffffffff1673ffffffffffffffffffffffffffffffffffffffff163373ffffffffffffffffffffffffffffffffffffffff161461168f576040517f08c379a0000000000000000000000000000000000000000000000000000000008152600401611686906144e5565b60405180910390fd5b6000809054906101000a900473ffffffffffffffffffffffffffffffffffffffff1673ffffffffffffffffffffffffffffffffffffffff168173ffffffffffffffffffffffffffffffffffffffff161461171e576040517f08c379a000000000000000000000000000000000000000000000000000000000815260040161171590614605565b60405180910390fd5b600073ffffffffffffffffffffffffffffffffffffffff168173ffffffffffffffffffffffffffffffffffffffff16141561178e576040517f08c379a000000000000000000000000000000000000000000000000000000000815260040161178590614585565b60405180910390fd5b806000806101000a81548173ffffffffffffffffffffffffffffffffffffffff021916908373ffffffffffffffffffffffffffffffffffffffff1602179055507f7ee35ffa528a36037ec23ed4b99d479118464d605ffa951ac0441db66273b3326000809054906101000a900473ffffffffffffffffffffffffffffffffffffffff168260405161182092919061445f565b60405180910390a150565b6000806002600084815260200190815260200160002060009054906101000a900473ffffffffffffffffffffffffffffffffffffffff169050600073ffffffffffffffffffffffffffffffffffffffff168173ffffffffffffffffffffffffffffffffffffffff161415915050919050565b6000806118a98361112a565b90508073ffffffffffffffffffffffffffffffffffffffff168473ffffffffffffffffffffffffffffffffffffffff16148061191857508373ffffffffffffffffffffffffffffffffffffffff166119008461065d565b73ffffffffffffffffffffffffffffffffffffffff16145b806119295750611928818561156c565b5b91505092915050565b61193d838383611c56565b6119478382611e85565b6119518282612023565b505050565b60008060009054906101000a900473ffffffffffffffffffffffffffffffffffffffff1673ffffffffffffffffffffffffffffffffffffffff163373ffffffffffffffffffffffffffffffffffffffff16146119e7576040517f08c379a00000000000000000000000000000000000000000000000000000000081526004016119de906144e5565b60405180910390fd5b6119f183836120ea565b6119fa8261210b565b6001905092915050565b6000611a0e613495565b611a16612229565b9050806080015151600185510114611a2d57600080fd5b611a356134dc565b6040518060400160405280600081526020016000815250905060008090505b8551811015611aac57611a9d82611a9885608001516001850181518110611a7757fe5b6020026020010151898581518110611a8b57fe5b6020026020010151612677565b61270b565b91508080600101915050611a54565b50611acf818360800151600081518110611ac257fe5b602002602001015161270b565b9050611b1584600001518560200151611ae7846127be565b8560400151611af989604001516127be565b8760600151611b0b89600001516127be565b8960200151612858565b611b2457600192505050611b2b565b6000925050505b92915050565b600081600001549050919050565b6000611b608473ffffffffffffffffffffffffffffffffffffffff166129bc565b611b6d5760019050611c4e565b60008473ffffffffffffffffffffffffffffffffffffffff1663150b7a02338887876040518563ffffffff1660e01b8152600401611bae9493929190614413565b602060405180830381600087803b158015611bc857600080fd5b505af1158015611bdc573d6000803e3d6000fd5b505050506040513d601f19601f82011682018060405250611c009190810190613cce565b905063150b7a0260e01b7bffffffffffffffffffffffffffffffffffffffffffffffffffffffff1916817bffffffffffffffffffffffffffffffffffffffffffffffffffffffff1916149150505b949350505050565b611c5f8161112a565b73ffffffffffffffffffffffffffffffffffffffff168373ffffffffffffffffffffffffffffffffffffffff1614611ccc576040517f08c379a0000000000000000000000000000000000000000000000000000000008152600401611cc390614665565b60405180910390fd5b600073ffffffffffffffffffffffffffffffffffffffff168273ffffffffffffffffffffffffffffffffffffffff161415611d3c576040517f08c379a0000000000000000000000000000000000000000000000000000000008152600401611d33906146a5565b60405180910390fd5b611d4581612a07565b611d8c600460008573ffffffffffffffffffffffffffffffffffffffff1673ffffffffffffffffffffffffffffffffffffffff168152602001908152602001600020612ac5565b611dd3600460008473ffffffffffffffffffffffffffffffffffffffff1673ffffffffffffffffffffffffffffffffffffffff168152602001908152602001600020612ae8565b816002600083815260200190815260200160002060006101000a81548173ffffffffffffffffffffffffffffffffffffffff021916908373ffffffffffffffffffffffffffffffffffffffff160217905550808273ffffffffffffffffffffffffffffffffffffffff168473ffffffffffffffffffffffffffffffffffffffff167fddf252ad1be2c89b69c2b068fc378daa952ba7f163c4a11628f55a4df523b3ef60405160405180910390a4505050565b6000611edd6001600660008673ffffffffffffffffffffffffffffffffffffffff1673ffffffffffffffffffffffffffffffffffffffff16815260200190815260200160002080549050612afe90919063ffffffff16565b9050600060076000848152602001908152602001600020549050818114611fca576000600660008673ffffffffffffffffffffffffffffffffffffffff1673ffffffffffffffffffffffffffffffffffffffff1681526020019081526020016000208381548110611f4a57fe5b9060005260206000200154905080600660008773ffffffffffffffffffffffffffffffffffffffff1673ffffffffffffffffffffffffffffffffffffffff1681526020019081526020016000208381548110611fa257fe5b9060005260206000200181905550816007600083815260200190815260200160002081905550505b600660008573ffffffffffffffffffffffffffffffffffffffff1673ffffffffffffffffffffffffffffffffffffffff16815260200190815260200160002080548091906001900361201c91906134f6565b5050505050565b600660008373ffffffffffffffffffffffffffffffffffffffff1673ffffffffffffffffffffffffffffffffffffffff168152602001908152602001600020805490506007600083815260200190815260200160002081905550600660008373ffffffffffffffffffffffffffffffffffffffff1673ffffffffffffffffffffffffffffffffffffffff1681526020019081526020016000208190806001815401808255809150509060018203906000526020600020016000909192909190915055505050565b6120f48282612b48565b6120fe8282612023565b61210781612cfa565b5050565b6121148161182b565b612153576040517f08c379a000000000000000000000000000000000000000000000000000000000815260040161214a90614565565b60405180910390fd5b6121ff60118054600181600116156101000203166002900480601f0160208091040260200160405190810160405280929190818152602001828054600181600116156101000203166002900480156121ec5780601f106121c1576101008083540402835291602001916121ec565b820191906000526020600020905b8154815290600101906020018083116121cf57829003601f168201915b50505050506121fa83612d46565b612e73565b601260008381526020019081526020016000209080519060200190612225929190613522565b5050565b612231613495565b60405180604001604052807f0be94ee1a3fdf6a0b4c34a13559b6b518613e82fae0709f2c4b95d7c253e077981526020017f22c2b6b5f7113a4722896e186fd203cb735e095e58517e014f9680dbbde6d10c8152508160000181905250604051806040016040528060405180604001604052807f2d0d5131a48ae4110cb1f5a65774087c88880f29c6e47b7cb0eec72f453c851581526020017f2ec3c72c13e3c5a2982b6713b8ddc53d6211fcd62aee90311ce22da0b5a827bf815250815260200160405180604001604052807f1133bc98050212232ecba663bc9a2fb9974e072c6a97654c14f606e8cd235a3581526020017f096f78c68e62de709ff8fbb7d5f335cd44c3bcc09af3ffbb35c79a8016f198f38152508152508160200181905250604051806040016040528060405180604001604052807f15b46ba775aea01a53f7a4ebd15c0831c8f095434bc17c524325cbeb898a176c81526020017f1c83d7c3f31df7f940403c4a59a698c865d1679bb040f8bb795b837f1e98b93e815250815260200160405180604001604052807f0407917805e2f825d1dd62979ec9300024e33e07ecc2930574d81fb2ee5030e181526020017f2abae7092fd8c3756dd1159102e44e50fb829c2eeb54d028563aef809d7800d18152508152508160400181905250604051806040016040528060405180604001604052807f086975b746e562005b1650ff1d3a728988d99e50458b25d7587902865ecf3cb681526020017f16812ed59ee295a228d112a449db15d2b5fac66ab4cafbda3dbfc472fc68bfec815250815260200160405180604001604052807f2f690d9e8976c43d51720e18acdd35fd439749e38b3ace29c77d051b23acd66881526020017f17b61a64d980f9f2d9090d008b7778581f29257f5e18b3d710996876ab8245ae8152508152508160600181905250600360405190808252806020026020018201604052801561251857816020015b6125056135a2565b8152602001906001900390816124fd5790505b50816080018190525060405180604001604052807f1bf172bf2472bb1425e8c82620218add62481275c74295dc224d1666953911b581526020017f0ea378eb09c30d35aa2b5810cb60b867c5253b8bcec926f11a9755cafec98eb6815250816080015160008151811061258757fe5b602002602001018190525060405180604001604052807f278c7ac6de4c26f8869b65ad7fd2dcc540128edd250d57265fc7cc04e3246b9581526020017f208efae830008f0ae6e049ec32ff1715ead31dc5840bf41160bc2cc5a1e4623d81525081608001516001815181106125f857fe5b602002602001018190525060405180604001604052807f1702f7c7be7ae788499fde2a8f99c1be41397bda02564ed811d57875436b83ca81526020017f1ac5eb49c76b1fbd269959c6245a4e64808eb28990b8a6282c21369b3be1874e815250816080015160028151811061266957fe5b602002602001018190525090565b61267f6134dc565b6126876135bc565b83600001518160006003811061269957fe5b6020020181815250508360200151816001600381106126b457fe5b60200201818152505082816002600381106126cb57fe5b6020020181815250506000606083608084600060076107d05a03f1905080600081146126f6576126f8565bfe5b508061270357600080fd5b505092915050565b6127136134dc565b61271b6135de565b83600001518160006004811061272d57fe5b60200201818152505083602001518160016004811061274857fe5b60200201818152505082600001518160026004811061276357fe5b60200201818152505082602001518160036004811061277e57fe5b602002018181525050600060608360c084600060066107d05a03f1905080600081146127a9576127ab565bfe5b50806127b657600080fd5b505092915050565b6127c66134dc565b60007f30644e72e131a029b85045b68181585d97816a916871ca8d3c208c16d87cfd47905060008360000151148015612803575060008360200151145b15612827576040518060400160405280600081526020016000815250915050612853565b6040518060400160405280846000015181526020018285602001518161284957fe5b0683038152509150505b919050565b60006060600460405190808252806020026020018201604052801561289757816020015b6128846135a2565b81526020019060019003908161287c5790505b509050606060046040519080825280602002602001820160405280156128d757816020015b6128c4613600565b8152602001906001900390816128bc5790505b5090508a826000815181106128e857fe5b6020026020010181905250888260018151811061290157fe5b6020026020010181905250868260028151811061291a57fe5b6020026020010181905250848260038151811061293357fe5b6020026020010181905250898160008151811061294c57fe5b6020026020010181905250878160018151811061296557fe5b6020026020010181905250858160028151811061297e57fe5b6020026020010181905250838160038151811061299757fe5b60200260200101819052506129ac8282612eb7565b9250505098975050505050505050565b60008060007fc5d2460186f7233c927e7db2dcc703c0e500b653ca82273b7bfad8045d85a47060001b9050833f91508082141580156129fe57506000801b8214155b92505050919050565b600073ffffffffffffffffffffffffffffffffffffffff166003600083815260200190815260200160002060009054906101000a900473ffffffffffffffffffffffffffffffffffffffff1673ffffffffffffffffffffffffffffffffffffffff1614612ac25760006003600083815260200190815260200160002060006101000a81548173ffffffffffffffffffffffffffffffffffffffff021916908373ffffffffffffffffffffffffffffffffffffffff1602179055505b50565b612add60018260000154612afe90919063ffffffff16565b816000018190555050565b6001816000016000828254019250508190555050565b6000612b4083836040518060400160405280601e81526020017f536166654d6174683a207375627472616374696f6e206f766572666c6f77000081525061310c565b905092915050565b612b518161182b565b15612b91576040517f08c379a0000000000000000000000000000000000000000000000000000000008152600401612b88906144c5565b60405180910390fd5b600073ffffffffffffffffffffffffffffffffffffffff168273ffffffffffffffffffffffffffffffffffffffff161415612c01576040517f08c379a0000000000000000000000000000000000000000000000000000000008152600401612bf890614545565b60405180910390fd5b816002600083815260200190815260200160002060006101000a81548173ffffffffffffffffffffffffffffffffffffffff021916908373ffffffffffffffffffffffffffffffffffffffff160217905550612c9a600460008473ffffffffffffffffffffffffffffffffffffffff1673ffffffffffffffffffffffffffffffffffffffff168152602001908152602001600020612ae8565b808273ffffffffffffffffffffffffffffffffffffffff16600073ffffffffffffffffffffffffffffffffffffffff167fddf252ad1be2c89b69c2b068fc378daa952ba7f163c4a11628f55a4df523b3ef60405160405180910390a45050565b6008805490506009600083815260200190815260200160002081905550600881908060018154018082558091505090600182039060005260206000200160009091929091909150555050565b60606000821415612d8e576040518060400160405280600181526020017f30000000000000000000000000000000000000000000000000000000000000008152509050612e6e565b600082905060005b60008214612db8578080600101915050600a8281612db057fe5b049150612d96565b6060816040519080825280601f01601f191660200182016040528015612ded5781602001600182028038833980820191505090505b50905060006001830390505b60008614612e6657600a8681612e0b57fe5b0660300160f81b82828060019003935081518110612e2557fe5b60200101907effffffffffffffffffffffffffffffffffffffffffffffffffffffffffffff1916908160001a905350600a8681612e5e57fe5b049550612df9565b819450505050505b919050565b6060612eaf8383604051806020016040528060008152506040518060200160405280600081525060405180602001604052806000815250613167565b905092915050565b60008151835114612ec757600080fd5b6000835190506000600682029050606081604051908082528060200260200182016040528015612f065781602001602082028038833980820191505090505b50905060008090505b838110156130ac57868181518110612f2357fe5b602002602001015160000151826000600684020181518110612f4157fe5b602002602001018181525050868181518110612f5957fe5b602002602001015160200151826001600684020181518110612f7757fe5b602002602001018181525050858181518110612f8f57fe5b602002602001015160000151600060028110612fa757fe5b6020020151826002600684020181518110612fbe57fe5b602002602001018181525050858181518110612fd657fe5b602002602001015160000151600160028110612fee57fe5b602002015182600360068402018151811061300557fe5b60200260200101818152505085818151811061301d57fe5b60200260200101516020015160006002811061303557fe5b602002015182600460068402018151811061304c57fe5b60200260200101818152505085818151811061306457fe5b60200260200101516020015160016002811061307c57fe5b602002015182600560068402018151811061309357fe5b6020026020010181815250508080600101915050612f0f565b506130b5613626565b60006020826020860260208601600060086107d05a03f1905080600081146130dc576130de565bfe5b50806130e957600080fd5b6000826000600181106130f857fe5b602002015114159550505050505092915050565b6000838311158290613154576040517f08c379a000000000000000000000000000000000000000000000000000000000815260040161314b91906144a3565b60405180910390fd5b5060008385039050809150509392505050565b6060808690506060869050606086905060608690506060869050606081518351855187518951010101016040519080825280601f01601f1916602001820160405280156131c35781602001600182028038833980820191505090505b509050606081905060008090506000809050600090505b8851811015613248578881815181106131ef57fe5b602001015160f81c60f81b83838060010194508151811061320c57fe5b60200101907effffffffffffffffffffffffffffffffffffffffffffffffffffffffffffff1916908160001a90535080806001019150506131da565b600090505b87518110156132bb5787818151811061326257fe5b602001015160f81c60f81b83838060010194508151811061327f57fe5b60200101907effffffffffffffffffffffffffffffffffffffffffffffffffffffffffffff1916908160001a905350808060010191505061324d565b600090505b865181101561332e578681815181106132d557fe5b602001015160f81c60f81b8383806001019450815181106132f257fe5b60200101907effffffffffffffffffffffffffffffffffffffffffffffffffffffffffffff1916908160001a90535080806001019150506132c0565b600090505b85518110156133a15785818151811061334857fe5b602001015160f81c60f81b83838060010194508151811061336557fe5b60200101907effffffffffffffffffffffffffffffffffffffffffffffffffffffffffffff1916908160001a9053508080600101915050613333565b600090505b8451811015613414578481815181106133bb57fe5b602001015160f81c60f81b8383806001019450815181106133d857fe5b60200101907effffffffffffffffffffffffffffffffffffffffffffffffffffffffffffff1916908160001a90535080806001019150506133a6565b82995050505050505050505095945050505050565b604051806060016040528060008152602001600073ffffffffffffffffffffffffffffffffffffffff1681526020016000151581525090565b60405180606001604052806134756135a2565b8152602001613482613600565b815260200161348f6135a2565b81525090565b6040518060a001604052806134a86135a2565b81526020016134b5613600565b81526020016134c2613600565b81526020016134cf613600565b8152602001606081525090565b604051806040016040528060008152602001600081525090565b81548183558181111561351d5781836000526020600020918201910161351c9190613648565b5b505050565b828054600181600116156101000203166002900490600052602060002090601f016020900481019282601f1061356357805160ff1916838001178555613591565b82800160010185558215613591579182015b82811115613590578251825591602001919060010190613575565b5b50905061359e9190613648565b5090565b604051806040016040528060008152602001600081525090565b6040518060600160405280600390602082028038833980820191505090505090565b6040518060800160405280600490602082028038833980820191505090505090565b604051806040016040528061361361366d565b815260200161362061366d565b81525090565b6040518060200160405280600190602082028038833980820191505090505090565b61366a91905b8082111561366657600081600090555060010161364e565b5090565b90565b6040518060400160405280600290602082028038833980820191505090505090565b60008135905061369e816149ba565b92915050565b600082601f8301126136b557600080fd5b60026136c86136c382614736565b614709565b915081838560408402820111156136de57600080fd5b60005b8381101561370e57816136f48882613718565b8452602084019350604083019250506001810190506136e1565b5050505092915050565b600082601f83011261372957600080fd5b600261373c61373782614758565b614709565b9150818385602084028201111561375257600080fd5b60005b83811015613782578161376888826138fc565b845260208401935060208301925050600181019050613755565b5050505092915050565b600082601f83011261379d57600080fd5b60026137b06137ab8261477a565b614709565b915081838560208402820111156137c657600080fd5b60005b838110156137f657816137dc88826138fc565b8452602084019350602083019250506001810190506137c9565b5050505092915050565b60008135905061380f816149d1565b92915050565b600081359050613824816149e8565b92915050565b600081359050613839816149ff565b92915050565b60008151905061384e816149ff565b92915050565b600082601f83011261386557600080fd5b81356138786138738261479c565b614709565b9150808252602083016020830185838301111561389457600080fd5b61389f838284614967565b50505092915050565b600082601f8301126138b957600080fd5b81356138cc6138c7826147c8565b614709565b915080825260208301602083018583830111156138e857600080fd5b6138f3838284614967565b50505092915050565b60008135905061390b81614a16565b92915050565b60006020828403121561392357600080fd5b60006139318482850161368f565b91505092915050565b6000806040838503121561394d57600080fd5b600061395b8582860161368f565b925050602061396c8582860161368f565b9150509250929050565b60008060006060848603121561398b57600080fd5b60006139998682870161368f565b93505060206139aa8682870161368f565b92505060406139bb868287016138fc565b9150509250925092565b600080600080608085870312156139db57600080fd5b60006139e98782880161368f565b94505060206139fa8782880161368f565b9350506040613a0b878288016138fc565b925050606085013567ffffffffffffffff811115613a2857600080fd5b613a3487828801613854565b91505092959194509250565b60008060408385031215613a5357600080fd5b6000613a618582860161368f565b9250506020613a7285828601613800565b9150509250929050565b60008060408385031215613a8f57600080fd5b6000613a9d8582860161368f565b9250506020613aae858286016138fc565b9150509250929050565b6000806000806000806101808789031215613ad257600080fd5b6000613ae089828a0161368f565b9650506020613af189828a016138fc565b9550506040613b0289828a0161378c565b9450506080613b1389828a016136a4565b935050610100613b2589828a0161378c565b925050610140613b3789828a0161378c565b9150509295509295509295565b6000806000806101408587031215613b5b57600080fd5b6000613b698782880161378c565b9450506040613b7a878288016136a4565b93505060c0613b8b8782880161378c565b925050610100613b9d8782880161378c565b91505092959194509250565b600060208284031215613bbb57600080fd5b6000613bc984828501613800565b91505092915050565b60008060408385031215613be557600080fd5b6000613bf385828601613815565b925050602083013567ffffffffffffffff811115613c1057600080fd5b613c1c858286016138a8565b9150509250929050565b600080600060608486031215613c3b57600080fd5b6000613c4986828701613815565b935050602084013567ffffffffffffffff811115613c6657600080fd5b613c72868287016138a8565b925050604084013567ffffffffffffffff811115613c8f57600080fd5b613c9b86828701613854565b9150509250925092565b600060208284031215613cb757600080fd5b6000613cc58482850161382a565b91505092915050565b600060208284031215613ce057600080fd5b6000613cee8482850161383f565b91505092915050565b600060208284031215613d0957600080fd5b6000613d17848285016138fc565b91505092915050565b6000613d2c8383613e1c565b60408301905092915050565b6000613d44838361439b565b60208301905092915050565b613d5981614931565b82525050565b613d68816148b3565b82525050565b613d7781614812565b613d818184614870565b9250613d8c826147f4565b8060005b83811015613dbd578151613da48782613d20565b9650613daf83614849565b925050600181019050613d90565b505050505050565b613dce81614828565b613dd88184614886565b9250613de382614808565b8060005b83811015613e14578151613dfb8782613d38565b9650613e0683614863565b925050600181019050613de7565b505050505050565b613e258161481d565b613e2f818461487b565b9250613e3a826147fe565b8060005b83811015613e6b578151613e528782613d38565b9650613e5d83614856565b925050600181019050613e3e565b505050505050565b613e7c816148c5565b82525050565b6000613e8d82614833565b613e978185614891565b9350613ea7818560208601614976565b613eb0816149a9565b840191505092915050565b6000613ec68261483e565b613ed081856148a2565b9350613ee0818560208601614976565b613ee9816149a9565b840191505092915050565b6000613f016014836148a2565b91507f546f6b656e20616c7265616479206578697374730000000000000000000000006000830152602082019050919050565b6000613f416019836148a2565b91507f4e6f74206f776e6572206f662074686520636f6e7472616374000000000000006000830152602082019050919050565b6000613f81602c836148a2565b91507f4f776e6572206f6620546f6b656e20494420697320657175616c20746f20746860008301527f6520746f206164647265737300000000000000000000000000000000000000006020830152604082019050919050565b6000613fe76014836148a2565b91507f546f6b656e20646f6573206e6f742065786973740000000000000000000000006000830152602082019050919050565b60006140276018836148a2565b91507f4164647265737320676976656e20697320696e76616c696400000000000000006000830152602082019050919050565b6000614067601b836148a2565b91507f5468697320697320616e20696e76616c696420746f6b656e20696400000000006000830152602082019050919050565b60006140a7601e836148a2565b91507f6e65774f776572206973206e6f7420612076616c6964206164647265737300006000830152602082019050919050565b60006140e7601d836148a2565b91507f546f6b656e2068617320616c7265616479206265656e206d696e7465640000006000830152602082019050919050565b60006141276022836148a2565b91507f5472616e73616374696f6e207375636365737366756c6c79207665726966696560008301527f642e0000000000000000000000000000000000000000000000000000000000006020830152604082019050919050565b600061418d601f836148a2565b91507f4164647265737320646f6573206e6f74206d6174636820736f6c7574696f6e006000830152602082019050919050565b60006141cd601e836148a2565b91507f4e6577204f776e6572206973206f776e6572206f6620636f6e747261637400006000830152602082019050919050565b600061420d601c836148a2565b91507f706175736564207661726961626c65206973206e6f742066616c7365000000006000830152602082019050919050565b600061424d601a836148a2565b91507f436f756c64206e6f742076657269667920736f6c7574696f6e730000000000006000830152602082019050919050565b600061428d602d836148a2565b91507f46726f6d206164647266657373206973204e4f54206f776e6572206f6620746860008301527f6520676976656e20746f6b656e000000000000000000000000000000000000006020830152604082019050919050565b60006142f36023836148a2565b91507f5468697320736f6c7574696f6e2068617320616c7265616479206265656e207560008301527f73656400000000000000000000000000000000000000000000000000000000006020830152604082019050919050565b60006143596020836148a2565b91507f7472616e7366657220746f2061646472657373206973206e6f742076616c69646000830152602082019050919050565b61439581614927565b82525050565b6143a481614927565b82525050565b60006143b68287613dc5565b6040820191506143c68286613d6e565b6080820191506143d68285613dc5565b6040820191506143e68284613dc5565b60408201915081905095945050505050565b600060208201905061440d6000830184613d5f565b92915050565b60006080820190506144286000830187613d50565b6144356020830186613d5f565b614442604083018561438c565b81810360608301526144548184613e82565b905095945050505050565b60006040820190506144746000830185613d5f565b6144816020830184613d5f565b9392505050565b600060208201905061449d6000830184613e73565b92915050565b600060208201905081810360008301526144bd8184613ebb565b905092915050565b600060208201905081810360008301526144de81613ef4565b9050919050565b600060208201905081810360008301526144fe81613f34565b9050919050565b6000602082019050818103600083015261451e81613f74565b9050919050565b6000602082019050818103600083015261453e81613fda565b9050919050565b6000602082019050818103600083015261455e8161401a565b9050919050565b6000602082019050818103600083015261457e8161405a565b9050919050565b6000602082019050818103600083015261459e8161409a565b9050919050565b600060208201905081810360008301526145be816140da565b9050919050565b600060208201905081810360008301526145de8161411a565b9050919050565b600060208201905081810360008301526145fe81614180565b9050919050565b6000602082019050818103600083015261461e816141c0565b9050919050565b6000602082019050818103600083015261463e81614200565b9050919050565b6000602082019050818103600083015261465e81614240565b9050919050565b6000602082019050818103600083015261467e81614280565b9050919050565b6000602082019050818103600083015261469e816142e6565b9050919050565b600060208201905081810360008301526146be8161434c565b9050919050565b60006020820190506146da600083018461438c565b92915050565b60006040820190506146f5600083018561438c565b6147026020830184613d5f565b9392505050565b6000604051905081810181811067ffffffffffffffff8211171561472c57600080fd5b8060405250919050565b600067ffffffffffffffff82111561474d57600080fd5b602082029050919050565b600067ffffffffffffffff82111561476f57600080fd5b602082029050919050565b600067ffffffffffffffff82111561479157600080fd5b602082029050919050565b600067ffffffffffffffff8211156147b357600080fd5b601f19601f8301169050602081019050919050565b600067ffffffffffffffff8211156147df57600080fd5b601f19601f8301169050602081019050919050565b6000819050919050565b6000819050919050565b6000819050919050565b600060029050919050565b600060029050919050565b600060029050919050565b600081519050919050565b600081519050919050565b6000602082019050919050565b6000602082019050919050565b6000602082019050919050565b600081905092915050565b600081905092915050565b600081905092915050565b600082825260208201905092915050565b600082825260208201905092915050565b60006148be82614907565b9050919050565b60008115159050919050565b6000819050919050565b60007fffffffff0000000000000000000000000000000000000000000000000000000082169050919050565b600073ffffffffffffffffffffffffffffffffffffffff82169050919050565b6000819050919050565b600061493c82614943565b9050919050565b600061494e82614955565b9050919050565b600061496082614907565b9050919050565b82818337600083830152505050565b60005b83811015614994578082015181840152602081019050614979565b838111156149a3576000848401525b50505050565b6000601f19601f8301169050919050565b6149c3816148b3565b81146149ce57600080fd5b50565b6149da816148c5565b81146149e557600080fd5b50565b6149f1816148d1565b81146149fc57600080fd5b50565b614a08816148db565b8114614a1357600080fd5b50565b614a1f81614927565b8114614a2a57600080fd5b5056fea365627a7a72315820fbe650e544cbddeaa456c7319e7300aa47b2c0d541f6dab56b4a325d5476545a6c6578706572696d656e74616cf564736f6c6343000510004068747470733a2f2f73332d75732d776573742d322e616d617a6f6e6177732e636f6d2f756461636974792d626c6f636b636861696e2f63617073746f6e652f",
  "source": "pragma solidity ^0.5.5; // >=0.4.21 <0.6.0;\npragma experimental ABIEncoderV2;\n\nimport \"./SquareVerifier.sol\";\nimport \"./ERC721Mintable.sol\";\nimport \"./Oraclize.sol\";\n\n\n\npragma solidity >=0.4.21 <0.6.0;\n\n\n\n// TODO define a contract call to the zokrates generated solidity contract <Verifier> or <renamedVerifier>\n// TODO define another contract named SolnSquareVerifier that inherits from your ERC721Mintable class\n\ncontract SolnSquareVerifier is SquareVerifier, CustomERC721Token {\n\n    constructor() public {\n        solutions.push(Solution(0, address(0), false));\n    }\n\n  modifier onlyOwner(){\n        require(msg.sender == _owner,\"Not owner of the contract\");\n        _;\n    }\n\n\n// TODO define a solutions struct that can hold an index & an address\n\n    struct Solution {\n        uint256 _index;\n        address _address;\n        bool _minted;\n    }\n\n\n\n// TODO define an array of the above struct\n\n    Solution[] solutions;\n\n// TODO define a mapping to store unique solutions submitted\n\n    mapping(bytes32 => bool) private uniqueSolutions;\n\n// TODO Create an event to emit when a solution is added\n    event SolutionAdded(uint256 index, address _address);\n\n// TODO Create a function to add the solutions to the array and emit the event\n    function addSolution(address _address, uint256 _index, uint[2] memory a, uint[2][2] memory b, uint[2] memory c, uint[2] memory input) public {\n        bytes32 key = keccak256(abi.encodePacked(a, b, c, input));\n        require(uniqueSolutions[key] == false, \"This solution has already been used\");\n\n        bool isVerified = verifyTx(a, b, c, input);\n\n        require(isVerified, \"Could not verify solutions\");\n        Solution memory solution = Solution(_index, _address, false);\n        solutions.push(solution);\n        uniqueSolutions[key] = true;\n        \n        emit SolutionAdded(_index, _address);\n    }\n\n\n\n// TODO Create a function to mint new NFT only after the solution has been verified\n//  - make sure the solution is unique (has not been used before)\n//  - make sure you handle metadata as well as tokenSuplly\n  function mint( address _address, uint256 tokenId ) public onlyOwner returns(bool) {\n        require(solutions[tokenId]._address == _address, \"Address does not match solution\");\n        require(solutions[tokenId]._minted == false, \"Token has already been minted\");\n        solutions[tokenId]._minted = true;\n        super.mint(_address, tokenId);\n        return true;\n    }\n\n}\n\n\n\n\n\n\n\n\n\n\n\n\n\n\n\n\n\n\n\n\n\n\n\n\n\n",
  "sourcePath": "/Users/jayc/Desktop/Blockchain-Capstone/eth-contracts/contracts/SolnSquareVerifier.sol",
  "compiler": {
    "name": "solc",
    "version": "0.5.16+commit.9c3226ce.Emscripten.clang"
  },
  "schemaVersion": "3.4.4",
  "updatedAt": "2022-07-19T18:31:20.628Z",
  "networkType": "ethereum",
  "devdoc": {
    "methods": {
      "isApprovedForAll(address,address)": {
        "details": "Tells whether an operator is approved by a given owner",
        "params": {
          "operator": "operator address which you want to query the approval of",
          "owner": "owner address which you want to query the approval of"
        },
        "return": "bool whether the given operator is approved by the given owner"
      },
      "setApprovalForAll(address,bool)": {
        "details": "Sets or unsets the approval of a given operator An operator is allowed to transfer all tokens of the sender on their behalf",
        "params": {
          "approved": "representing the status of the approval to be set",
          "to": "operator address to set the approval"
        }
      },
      "supportsInterface(bytes4)": {
        "details": "implement supportsInterface(bytes4) using a lookup table"
      },
      "tokenByIndex(uint256)": {
        "details": "Gets the token ID at a given index of all the tokens in this contract Reverts if the index is greater or equal to the total number of tokens",
        "params": {
          "index": "uint256 representing the index to be accessed of the tokens list"
        },
        "return": "uint256 token ID at the given index of the tokens list"
      },
      "tokenOfOwnerByIndex(address,uint256)": {
        "details": "Gets the token ID at a given index of the tokens list of the requested owner",
        "params": {
          "index": "uint256 representing the index to be accessed of the requested tokens list",
          "owner": "address owning the tokens list to be accessed"
        },
        "return": "uint256 token ID at the given index of the tokens list owned by the requested address"
      },
      "totalSupply()": {
        "details": "Gets the total amount of tokens stored by the contract",
        "return": "uint256 representing the total amount of tokens"
      }
    }
  },
  "userdoc": {
    "methods": {}
  }
}