{
  "contractName": "SolnSquareVerifier",
  "abi": [
    {
      "inputs": [],
      "payable": false,
      "stateMutability": "nonpayable",
      "type": "constructor"
    },
    {
      "anonymous": false,
      "inputs": [
        {
          "indexed": true,
          "internalType": "address",
          "name": "owner",
          "type": "address"
        },
        {
          "indexed": true,
          "internalType": "address",
          "name": "approved",
          "type": "address"
        },
        {
          "indexed": true,
          "internalType": "uint256",
          "name": "tokenId",
          "type": "uint256"
        }
      ],
      "name": "Approval",
      "type": "event"
    },
    {
      "anonymous": false,
      "inputs": [
        {
          "indexed": true,
          "internalType": "address",
          "name": "owner",
          "type": "address"
        },
        {
          "indexed": true,
          "internalType": "address",
          "name": "operator",
          "type": "address"
        },
        {
          "indexed": false,
          "internalType": "bool",
          "name": "approved",
          "type": "bool"
        }
      ],
      "name": "ApprovalForAll",
      "type": "event"
    },
    {
      "anonymous": false,
      "inputs": [
        {
          "indexed": false,
          "internalType": "address",
          "name": "caller",
          "type": "address"
        }
      ],
      "name": "Paused",
      "type": "event"
    },
    {
      "anonymous": false,
      "inputs": [
        {
          "indexed": true,
          "internalType": "address",
          "name": "from",
          "type": "address"
        },
        {
          "indexed": true,
          "internalType": "address",
          "name": "to",
          "type": "address"
        },
        {
          "indexed": true,
          "internalType": "uint256",
          "name": "tokenId",
          "type": "uint256"
        }
      ],
      "name": "Transfer",
      "type": "event"
    },
    {
      "anonymous": false,
      "inputs": [
        {
          "indexed": false,
          "internalType": "address",
          "name": "caller",
          "type": "address"
        }
      ],
      "name": "Unpaused",
      "type": "event"
    },
    {
      "anonymous": false,
      "inputs": [
        {
          "indexed": false,
          "internalType": "uint256",
          "name": "index",
          "type": "uint256"
        },
        {
          "indexed": false,
          "internalType": "address",
          "name": "_address",
          "type": "address"
        }
      ],
      "name": "addedSolution",
      "type": "event"
    },
    {
      "anonymous": false,
      "inputs": [
        {
          "indexed": false,
          "internalType": "address",
          "name": "currentOwner",
          "type": "address"
        },
        {
          "indexed": false,
          "internalType": "address",
          "name": "newOwner",
          "type": "address"
        }
      ],
      "name": "ownershipTransfer",
      "type": "event"
    },
    {
      "constant": true,
      "inputs": [
        {
          "internalType": "bytes32",
          "name": "_myid",
          "type": "bytes32"
        },
        {
          "internalType": "string",
          "name": "_result",
          "type": "string"
        }
      ],
      "name": "__callback",
      "outputs": [],
      "payable": false,
      "stateMutability": "pure",
      "type": "function"
    },
    {
      "constant": true,
      "inputs": [
        {
          "internalType": "bytes32",
          "name": "_myid",
          "type": "bytes32"
        },
        {
          "internalType": "string",
          "name": "_result",
          "type": "string"
        },
        {
          "internalType": "bytes",
          "name": "_proof",
          "type": "bytes"
        }
      ],
      "name": "__callback",
      "outputs": [],
      "payable": false,
      "stateMutability": "pure",
      "type": "function"
    },
    {
      "constant": true,
      "inputs": [],
      "name": "_owner",
      "outputs": [
        {
          "internalType": "address",
          "name": "",
          "type": "address"
        }
      ],
      "payable": false,
      "stateMutability": "view",
      "type": "function"
    },
    {
      "constant": false,
      "inputs": [
        {
          "internalType": "address",
          "name": "to",
          "type": "address"
        },
        {
          "internalType": "uint256",
          "name": "tokenId",
          "type": "uint256"
        }
      ],
      "name": "approve",
      "outputs": [],
      "payable": false,
      "stateMutability": "nonpayable",
      "type": "function"
    },
    {
      "constant": true,
      "inputs": [
        {
          "internalType": "address",
          "name": "owner",
          "type": "address"
        }
      ],
      "name": "balanceOf",
      "outputs": [
        {
          "internalType": "uint256",
          "name": "",
          "type": "uint256"
        }
      ],
      "payable": false,
      "stateMutability": "view",
      "type": "function"
    },
    {
      "constant": true,
      "inputs": [],
      "name": "baseTokenURI",
      "outputs": [
        {
          "internalType": "string",
          "name": "",
          "type": "string"
        }
      ],
      "payable": false,
      "stateMutability": "view",
      "type": "function"
    },
    {
      "constant": true,
      "inputs": [
        {
          "internalType": "uint256",
          "name": "tokenId",
          "type": "uint256"
        }
      ],
      "name": "getApproved",
      "outputs": [
        {
          "internalType": "address",
          "name": "",
          "type": "address"
        }
      ],
      "payable": false,
      "stateMutability": "view",
      "type": "function"
    },
    {
      "constant": true,
      "inputs": [
        {
          "internalType": "address",
          "name": "owner",
          "type": "address"
        },
        {
          "internalType": "address",
          "name": "operator",
          "type": "address"
        }
      ],
      "name": "isApprovedForAll",
      "outputs": [
        {
          "internalType": "bool",
          "name": "",
          "type": "bool"
        }
      ],
      "payable": false,
      "stateMutability": "view",
      "type": "function"
    },
    {
      "constant": false,
      "inputs": [
        {
          "internalType": "address",
          "name": "to",
          "type": "address"
        },
        {
          "internalType": "uint256",
          "name": "tokenId",
          "type": "uint256"
        }
      ],
      "name": "mint",
      "outputs": [
        {
          "internalType": "bool",
          "name": "",
          "type": "bool"
        }
      ],
      "payable": false,
      "stateMutability": "nonpayable",
      "type": "function"
    },
    {
      "constant": true,
      "inputs": [],
      "name": "name",
      "outputs": [
        {
          "internalType": "string",
          "name": "",
          "type": "string"
        }
      ],
      "payable": false,
      "stateMutability": "view",
      "type": "function"
    },
    {
      "constant": true,
      "inputs": [
        {
          "internalType": "uint256",
          "name": "tokenId",
          "type": "uint256"
        }
      ],
      "name": "ownerOf",
      "outputs": [
        {
          "internalType": "address",
          "name": "",
          "type": "address"
        }
      ],
      "payable": false,
      "stateMutability": "view",
      "type": "function"
    },
    {
      "constant": false,
      "inputs": [
        {
          "internalType": "bool",
          "name": "isPaused",
          "type": "bool"
        }
      ],
      "name": "pausable",
      "outputs": [],
      "payable": false,
      "stateMutability": "nonpayable",
      "type": "function"
    },
    {
      "constant": true,
      "inputs": [],
      "name": "retrieveCurrentOwner",
      "outputs": [
        {
          "internalType": "address",
          "name": "",
          "type": "address"
        }
      ],
      "payable": false,
      "stateMutability": "view",
      "type": "function"
    },
    {
      "constant": false,
      "inputs": [
        {
          "internalType": "address",
          "name": "from",
          "type": "address"
        },
        {
          "internalType": "address",
          "name": "to",
          "type": "address"
        },
        {
          "internalType": "uint256",
          "name": "tokenId",
          "type": "uint256"
        }
      ],
      "name": "safeTransferFrom",
      "outputs": [],
      "payable": false,
      "stateMutability": "nonpayable",
      "type": "function"
    },
    {
      "constant": false,
      "inputs": [
        {
          "internalType": "address",
          "name": "from",
          "type": "address"
        },
        {
          "internalType": "address",
          "name": "to",
          "type": "address"
        },
        {
          "internalType": "uint256",
          "name": "tokenId",
          "type": "uint256"
        },
        {
          "internalType": "bytes",
          "name": "_data",
          "type": "bytes"
        }
      ],
      "name": "safeTransferFrom",
      "outputs": [],
      "payable": false,
      "stateMutability": "nonpayable",
      "type": "function"
    },
    {
      "constant": false,
      "inputs": [
        {
          "internalType": "address",
          "name": "to",
          "type": "address"
        },
        {
          "internalType": "bool",
          "name": "approved",
          "type": "bool"
        }
      ],
      "name": "setApprovalForAll",
      "outputs": [],
      "payable": false,
      "stateMutability": "nonpayable",
      "type": "function"
    },
    {
      "constant": true,
      "inputs": [
        {
          "internalType": "bytes4",
          "name": "interfaceId",
          "type": "bytes4"
        }
      ],
      "name": "supportsInterface",
      "outputs": [
        {
          "internalType": "bool",
          "name": "",
          "type": "bool"
        }
      ],
      "payable": false,
      "stateMutability": "view",
      "type": "function"
    },
    {
      "constant": true,
      "inputs": [],
      "name": "symbol",
      "outputs": [
        {
          "internalType": "string",
          "name": "",
          "type": "string"
        }
      ],
      "payable": false,
      "stateMutability": "view",
      "type": "function"
    },
    {
      "constant": true,
      "inputs": [
        {
          "internalType": "uint256",
          "name": "index",
          "type": "uint256"
        }
      ],
      "name": "tokenByIndex",
      "outputs": [
        {
          "internalType": "uint256",
          "name": "",
          "type": "uint256"
        }
      ],
      "payable": false,
      "stateMutability": "view",
      "type": "function"
    },
    {
      "constant": true,
      "inputs": [
        {
          "internalType": "address",
          "name": "owner",
          "type": "address"
        },
        {
          "internalType": "uint256",
          "name": "index",
          "type": "uint256"
        }
      ],
      "name": "tokenOfOwnerByIndex",
      "outputs": [
        {
          "internalType": "uint256",
          "name": "",
          "type": "uint256"
        }
      ],
      "payable": false,
      "stateMutability": "view",
      "type": "function"
    },
    {
      "constant": true,
      "inputs": [
        {
          "internalType": "uint256",
          "name": "tokenId",
          "type": "uint256"
        }
      ],
      "name": "tokenURI",
      "outputs": [
        {
          "internalType": "string",
          "name": "",
          "type": "string"
        }
      ],
      "payable": false,
      "stateMutability": "view",
      "type": "function"
    },
    {
      "constant": true,
      "inputs": [],
      "name": "totalSupply",
      "outputs": [
        {
          "internalType": "uint256",
          "name": "",
          "type": "uint256"
        }
      ],
      "payable": false,
      "stateMutability": "view",
      "type": "function"
    },
    {
      "constant": false,
      "inputs": [
        {
          "internalType": "address",
          "name": "from",
          "type": "address"
        },
        {
          "internalType": "address",
          "name": "to",
          "type": "address"
        },
        {
          "internalType": "uint256",
          "name": "tokenId",
          "type": "uint256"
        }
      ],
      "name": "transferFrom",
      "outputs": [],
      "payable": false,
      "stateMutability": "nonpayable",
      "type": "function"
    },
    {
      "constant": false,
      "inputs": [
        {
          "internalType": "address",
          "name": "newOwner",
          "type": "address"
        }
      ],
      "name": "transferOwnership",
      "outputs": [],
      "payable": false,
      "stateMutability": "nonpayable",
      "type": "function"
    },
    {
      "constant": true,
      "inputs": [
        {
          "internalType": "bytes32",
          "name": "",
          "type": "bytes32"
        }
      ],
      "name": "uniqueSolution",
      "outputs": [
        {
          "internalType": "bool",
          "name": "",
          "type": "bool"
        }
      ],
      "payable": false,
      "stateMutability": "view",
      "type": "function"
    },
    {
      "constant": true,
      "inputs": [
        {
          "internalType": "uint256[2]",
          "name": "a",
          "type": "uint256[2]"
        },
        {
          "internalType": "uint256[2][2]",
          "name": "b",
          "type": "uint256[2][2]"
        },
        {
          "internalType": "uint256[2]",
          "name": "c",
          "type": "uint256[2]"
        },
        {
          "internalType": "uint256[2]",
          "name": "input",
          "type": "uint256[2]"
        }
      ],
      "name": "verifyTx",
      "outputs": [
        {
          "internalType": "bool",
          "name": "r",
          "type": "bool"
        }
      ],
      "payable": false,
      "stateMutability": "view",
      "type": "function"
    },
    {
      "constant": false,
      "inputs": [
        {
          "internalType": "address",
          "name": "_address",
          "type": "address"
        },
        {
          "internalType": "uint256",
          "name": "_index",
          "type": "uint256"
        },
        {
          "internalType": "uint256[2]",
          "name": "a",
          "type": "uint256[2]"
        },
        {
          "internalType": "uint256[2][2]",
          "name": "b",
          "type": "uint256[2][2]"
        },
        {
          "internalType": "uint256[2]",
          "name": "c",
          "type": "uint256[2]"
        },
        {
          "internalType": "uint256[2]",
          "name": "input",
          "type": "uint256[2]"
        }
      ],
      "name": "addSolutionArray",
      "outputs": [],
      "payable": false,
      "stateMutability": "nonpayable",
      "type": "function"
    },
    {
      "constant": false,
      "inputs": [
        {
          "internalType": "address",
          "name": "_address",
          "type": "address"
        },
        {
          "internalType": "uint256",
          "name": "tokenId",
          "type": "uint256"
        }
      ],
      "name": "mintTheNft",
      "outputs": [
        {
          "internalType": "bool",
          "name": "",
          "type": "bool"
        }
      ],
      "payable": false,
      "stateMutability": "nonpayable",
      "type": "function"
    }
  ],
  "bytecode": "0x60806040523480156200001157600080fd5b506040518060400160405280601581526020017f5265616c457374617465204e465420546f6b656e7300000000000000000000008152506040518060400160405280600481526020017f52454e54000000000000000000000000000000000000000000000000000000008152506040518060600160405280603f815260200162004d07603f9139336000806101000a81548173ffffffffffffffffffffffffffffffffffffffff021916908373ffffffffffffffffffffffffffffffffffffffff1602179055507f7ee35ffa528a36037ec23ed4b99d479118464d605ffa951ac0441db66273b33260008060009054906101000a900473ffffffffffffffffffffffffffffffffffffffff16604051808373ffffffffffffffffffffffffffffffffffffffff1673ffffffffffffffffffffffffffffffffffffffff1681526020018273ffffffffffffffffffffffffffffffffffffffff1673ffffffffffffffffffffffffffffffffffffffff1681526020019250505060405180910390a160008060146101000a81548160ff021916908315150217905550620001c36301ffc9a760e01b6200033b60201b60201c565b620001db6380ac58cd60e01b6200033b60201b60201c565b620001f363780e9d6360e01b6200033b60201b60201c565b82600f90805190602001906200020b929190620003db565b50816010908051906020019062000224929190620003db565b5080601190805190602001906200023d929190620003db565b506200025b635b5e139f60e01b6200033b60201b6200470c1760201c565b5050506013604051806060016040528060008152602001600073ffffffffffffffffffffffffffffffffffffffff16815260200160001515815250908060018154018082558091505090600182039060005260206000209060020201600090919290919091506000820151816000015560208201518160010160006101000a81548173ffffffffffffffffffffffffffffffffffffffff021916908373ffffffffffffffffffffffffffffffffffffffff16021790555060408201518160010160146101000a81548160ff0219169083151502179055505050506200048a565b63ffffffff60e01b817bffffffffffffffffffffffffffffffffffffffffffffffffffffffff191614156200036f57600080fd5b6001806000837bffffffffffffffffffffffffffffffffffffffffffffffffffffffff19167bffffffffffffffffffffffffffffffffffffffffffffffffffffffff1916815260200190815260200160002060006101000a81548160ff02191690831515021790555050565b828054600181600116156101000203166002900490600052602060002090601f016020900481019282601f106200041e57805160ff19168380011785556200044f565b828001600101855582156200044f579182015b828111156200044e57825182559160200191906001019062000431565b5b5090506200045e919062000462565b5090565b6200048791905b808211156200048357600081600090555060010162000469565b5090565b90565b61486d806200049a6000396000f3fe608060405234801561001057600080fd5b50600436106101c45760003560e01c80636352211e116100f9578063b2bdfa7b11610097578063d547cfb711610071578063d547cfb714610dc0578063e5ad88a714610e43578063e985e9c514610fce578063f2fde38b1461104a576101c4565b8063b2bdfa7b14610bca578063b88d4fde14610c14578063c87b56dd14610d19576101c4565b806395d89b41116100d357806395d89b4114610a475780639c0dce7214610aca578063a22cb46514610b30578063aa59c54614610b80576101c4565b80636352211e1461093b57806370a08231146109a95780637abcab6e14610a01576101c4565b806327dc297e1161016657806340c10f191161014057806340c10f19146106ac57806342842e0e146107125780634f6ccce714610780578063621e9ec0146107c2576101c4565b806327dc297e146104295780632f745c59146104ee57806338bbfa5014610550576101c4565b8063095ea7b3116101a2578063095ea7b31461031f57806318160ddd1461036d57806323b872dd1461038b578063272870ac146103f9576101c4565b806301ffc9a7146101c957806306fdde031461022e578063081812fc146102b1575b600080fd5b610214600480360360208110156101df57600080fd5b8101908080357bffffffffffffffffffffffffffffffffffffffffffffffffffffffff1916906020019092919050505061108e565b604051808215151515815260200191505060405180910390f35b6102366110f6565b6040518080602001828103825283818151815260200191508051906020019080838360005b8381101561027657808201518184015260208101905061025b565b50505050905090810190601f1680156102a35780820380516001836020036101000a031916815260200191505b509250505060405180910390f35b6102dd600480360360208110156102c757600080fd5b8101908080359060200190929190505050611198565b604051808273ffffffffffffffffffffffffffffffffffffffff1673ffffffffffffffffffffffffffffffffffffffff16815260200191505060405180910390f35b61036b6004803603604081101561033557600080fd5b81019080803573ffffffffffffffffffffffffffffffffffffffff16906020019092919080359060200190929190505050611250565b005b6103756113dd565b6040518082815260200191505060405180910390f35b6103f7600480360360608110156103a157600080fd5b81019080803573ffffffffffffffffffffffffffffffffffffffff169060200190929190803573ffffffffffffffffffffffffffffffffffffffff169060200190929190803590602001909291905050506113ea565b005b6104276004803603602081101561040f57600080fd5b8101908080351515906020019092919050505061140d565b005b6104ec6004803603604081101561043f57600080fd5b81019080803590602001909291908035906020019064010000000081111561046657600080fd5b82018360208201111561047857600080fd5b8035906020019184600183028401116401000000008311171561049a57600080fd5b91908080601f016020809104026020016040519081016040528093929190818152602001838380828437600081840152601f19601f820116905080830192505050505050509192919290505050611575565b005b61053a6004803603604081101561050457600080fd5b81019080803573ffffffffffffffffffffffffffffffffffffffff169060200190929190803590602001909291905050506115b8565b6040518082815260200191505060405180910390f35b6106aa6004803603606081101561056657600080fd5b81019080803590602001909291908035906020019064010000000081111561058d57600080fd5b82018360208201111561059f57600080fd5b803590602001918460018302840111640100000000831117156105c157600080fd5b91908080601f016020809104026020016040519081016040528093929190818152602001838380828437600081840152601f19601f8201169050808301925050505050505091929192908035906020019064010000000081111561062457600080fd5b82018360208201111561063657600080fd5b8035906020019184600183028401116401000000008311171561065857600080fd5b91908080601f016020809104026020016040519081016040528093929190818152602001838380828437600081840152601f19601f82011690508083019250505050505050919291929050505061162b565b005b6106f8600480360360408110156106c257600080fd5b81019080803573ffffffffffffffffffffffffffffffffffffffff16906020019092919080359060200190929190505050611630565b604051808215151515815260200191505060405180910390f35b61077e6004803603606081101561072857600080fd5b81019080803573ffffffffffffffffffffffffffffffffffffffff169060200190929190803573ffffffffffffffffffffffffffffffffffffffff16906020019092919080359060200190929190505050611711565b005b6107ac6004803603602081101561079657600080fd5b8101908080359060200190929190505050611731565b6040518082815260200191505060405180910390f35b61092160048036036101408110156107d957600080fd5b8101908080604001906002806020026040519081016040528092919082600260200280828437600081840152601f19601f82011690508083019250505050505091929192908060800190600280602002604051908101604052809291906000905b8282101561088e578382604002016002806020026040519081016040528092919082600260200280828437600081840152601f19601f8201169050808301925050505050508152602001906001019061083a565b50505050919291929080604001906002806020026040519081016040528092919082600260200280828437600081840152601f19601f820116905080830192505050505050919291929080604001906002806020026040519081016040528092919082600260200280828437600081840152601f19601f8201169050808301925050505050509192919290505050611765565b604051808215151515815260200191505060405180910390f35b6109676004803603602081101561095157600080fd5b8101908080359060200190929190505050611961565b604051808273ffffffffffffffffffffffffffffffffffffffff1673ffffffffffffffffffffffffffffffffffffffff16815260200191505060405180910390f35b6109eb600480360360208110156109bf57600080fd5b81019080803573ffffffffffffffffffffffffffffffffffffffff16906020019092919050505061199e565b6040518082815260200191505060405180910390f35b610a2d60048036036020811015610a1757600080fd5b81019080803590602001909291905050506119ee565b604051808215151515815260200191505060405180910390f35b610a4f611a0e565b6040518080602001828103825283818151815260200191508051906020019080838360005b83811015610a8f578082015181840152602081019050610a74565b50505050905090810190601f168015610abc5780820380516001836020036101000a031916815260200191505b509250505060405180910390f35b610b1660048036036040811015610ae057600080fd5b81019080803573ffffffffffffffffffffffffffffffffffffffff16906020019092919080359060200190929190505050611ab0565b604051808215151515815260200191505060405180910390f35b610b7e60048036036040811015610b4657600080fd5b81019080803573ffffffffffffffffffffffffffffffffffffffff169060200190929190803515159060200190929190505050611d27565b005b610b88611e61565b604051808273ffffffffffffffffffffffffffffffffffffffff1673ffffffffffffffffffffffffffffffffffffffff16815260200191505060405180910390f35b610bd2611e8a565b604051808273ffffffffffffffffffffffffffffffffffffffff1673ffffffffffffffffffffffffffffffffffffffff16815260200191505060405180910390f35b610d1760048036036080811015610c2a57600080fd5b81019080803573ffffffffffffffffffffffffffffffffffffffff169060200190929190803573ffffffffffffffffffffffffffffffffffffffff1690602001909291908035906020019092919080359060200190640100000000811115610c9157600080fd5b820183602082011115610ca357600080fd5b80359060200191846001830284011164010000000083111715610cc557600080fd5b91908080601f016020809104026020016040519081016040528093929190818152602001838380828437600081840152601f19601f820116905080830192505050505050509192919290505050611eaf565b005b610d4560048036036020811015610d2f57600080fd5b8101908080359060200190929190505050611ed5565b6040518080602001828103825283818151815260200191508051906020019080838360005b83811015610d85578082015181840152602081019050610d6a565b50505050905090810190601f168015610db25780820380516001836020036101000a031916815260200191505b509250505060405180910390f35b610dc8611f9c565b6040518080602001828103825283818151815260200191508051906020019080838360005b83811015610e08578082015181840152602081019050610ded565b50505050905090810190601f168015610e355780820380516001836020036101000a031916815260200191505b509250505060405180910390f35b610fcc6004803603610180811015610e5a57600080fd5b81019080803573ffffffffffffffffffffffffffffffffffffffff1690602001909291908035906020019092919080604001906002806020026040519081016040528092919082600260200280828437600081840152601f19601f82011690508083019250505050505091929192908060800190600280602002604051908101604052809291906000905b82821015610f39578382604002016002806020026040519081016040528092919082600260200280828437600081840152601f19601f82011690508083019250505050505081526020019060010190610ee5565b50505050919291929080604001906002806020026040519081016040528092919082600260200280828437600081840152601f19601f820116905080830192505050505050919291929080604001906002806020026040519081016040528092919082600260200280828437600081840152601f19601f820116905080830192505050505050919291929050505061203e565b005b61103060048036036040811015610fe457600080fd5b81019080803573ffffffffffffffffffffffffffffffffffffffff169060200190929190803573ffffffffffffffffffffffffffffffffffffffff1690602001909291905050506123e3565b604051808215151515815260200191505060405180910390f35b61108c6004803603602081101561106057600080fd5b81019080803573ffffffffffffffffffffffffffffffffffffffff169060200190929190505050612477565b005b600060016000837bffffffffffffffffffffffffffffffffffffffffffffffffffffffff19167bffffffffffffffffffffffffffffffffffffffffffffffffffffffff1916815260200190815260200160002060009054906101000a900460ff169050919050565b6060600f8054600181600116156101000203166002900480601f01602080910402602001604051908101604052809291908181526020018280546001816001161561010002031660029004801561118e5780601f106111635761010080835404028352916020019161118e565b820191906000526020600020905b81548152906001019060200180831161117157829003601f168201915b5050505050905090565b60006111a3826126fe565b611215576040517f08c379a00000000000000000000000000000000000000000000000000000000081526004018080602001828103825260148152602001807f546f6b656e20646f6573206e6f7420657869737400000000000000000000000081525060200191505060405180910390fd5b6003600083815260200190815260200160002060009054906101000a900473ffffffffffffffffffffffffffffffffffffffff169050919050565b600061125b82611961565b90508073ffffffffffffffffffffffffffffffffffffffff168373ffffffffffffffffffffffffffffffffffffffff1614156112e2576040517f08c379a000000000000000000000000000000000000000000000000000000000815260040180806020018281038252602c8152602001806147e0602c913960400191505060405180910390fd5b8073ffffffffffffffffffffffffffffffffffffffff163373ffffffffffffffffffffffffffffffffffffffff161480611322575061132181336123e3565b5b61132b57600080fd5b826003600084815260200190815260200160002060006101000a81548173ffffffffffffffffffffffffffffffffffffffff021916908373ffffffffffffffffffffffffffffffffffffffff160217905550818373ffffffffffffffffffffffffffffffffffffffff163373ffffffffffffffffffffffffffffffffffffffff167f8c5be1e5ebec7d5bd14f71427d1e84f3dd0314c0f7b2291e5b200ac8c7c3b92560405160405180910390a4505050565b6000600880549050905090565b6113f43382612770565b6113fd57600080fd5b611408838383612805565b505050565b6000809054906101000a900473ffffffffffffffffffffffffffffffffffffffff1673ffffffffffffffffffffffffffffffffffffffff163373ffffffffffffffffffffffffffffffffffffffff16146114cf576040517f08c379a00000000000000000000000000000000000000000000000000000000081526004018080602001828103825260198152602001807f4e6f74206f776e6572206f662074686520636f6e74726163740000000000000081525060200191505060405180910390fd5b801515600060149054906101000a900460ff1615151415611558576040517f08c379a000000000000000000000000000000000000000000000000000000000815260040180806020018281038252601c8152602001807f706175736564207661726961626c65206973206e6f742066616c73650000000081525060200191505060405180910390fd5b80600060146101000a81548160ff02191690831515021790555050565b6115b4828260006040519080825280601f01601f1916602001820160405280156115ae5781602001600182028038833980820191505090505b5061162b565b5050565b60006115c38361199e565b82106115ce57600080fd5b600660008473ffffffffffffffffffffffffffffffffffffffff1673ffffffffffffffffffffffffffffffffffffffff168152602001908152602001600020828154811061161857fe5b9060005260206000200154905092915050565b505050565b60008060009054906101000a900473ffffffffffffffffffffffffffffffffffffffff1673ffffffffffffffffffffffffffffffffffffffff163373ffffffffffffffffffffffffffffffffffffffff16146116f4576040517f08c379a00000000000000000000000000000000000000000000000000000000081526004018080602001828103825260198152602001807f4e6f74206f776e6572206f662074686520636f6e74726163740000000000000081525060200191505060405180910390fd5b6116fe8383612829565b6117078261284a565b6001905092915050565b61172c83838360405180602001604052806000815250611eaf565b505050565b600061173b6113dd565b821061174657600080fd5b6008828154811061175357fe5b90600052602060002001549050919050565b600061176f6144a6565b60405180604001604052808760006002811061178757fe5b602002015181526020018760016002811061179e57fe5b6020020151815250816000018190525060405180604001604052806040518060400160405280886000600281106117d157fe5b60200201516000600281106117e257fe5b60200201518152602001886000600281106117f957fe5b602002015160016002811061180a57fe5b6020020151815250815260200160405180604001604052808860016002811061182f57fe5b602002015160006002811061184057fe5b602002015181526020018860016002811061185757fe5b602002015160016002811061186857fe5b6020020151815250815250816020018190525060405180604001604052808560006002811061189357fe5b60200201518152602001856001600281106118aa57fe5b60200201518152508160400181905250606060026040519080825280602002602001820160405280156118ec5781602001602082028038833980820191505090505b50905060008090505b60028110156119345784816002811061190a57fe5b602002015182828151811061191b57fe5b60200260200101818152505080806001019150506118f5565b506000611941828461299b565b141561195257600192505050611959565b6000925050505b949350505050565b60006002600083815260200190815260200160002060009054906101000a900473ffffffffffffffffffffffffffffffffffffffff169050919050565b60006119e7600460008473ffffffffffffffffffffffffffffffffffffffff1673ffffffffffffffffffffffffffffffffffffffff168152602001908152602001600020612b0d565b9050919050565b60146020528060005260406000206000915054906101000a900460ff1681565b606060108054600181600116156101000203166002900480601f016020809104026020016040519081016040528092919081815260200182805460018160011615610100020316600290048015611aa65780601f10611a7b57610100808354040283529160200191611aa6565b820191906000526020600020905b815481529060010190602001808311611a8957829003601f168201915b5050505050905090565b60008060009054906101000a900473ffffffffffffffffffffffffffffffffffffffff1673ffffffffffffffffffffffffffffffffffffffff163373ffffffffffffffffffffffffffffffffffffffff1614611b74576040517f08c379a00000000000000000000000000000000000000000000000000000000081526004018080602001828103825260198152602001807f4e6f74206f776e6572206f662074686520636f6e74726163740000000000000081525060200191505060405180910390fd5b8273ffffffffffffffffffffffffffffffffffffffff1660138381548110611b9857fe5b906000526020600020906002020160010160009054906101000a900473ffffffffffffffffffffffffffffffffffffffff1673ffffffffffffffffffffffffffffffffffffffff1614611c36576040517f08c379a00000000000000000000000000000000000000000000000000000000081526004018080602001828103825260348152602001806147ac6034913960400191505060405180910390fd5b6000151560138381548110611c4757fe5b906000526020600020906002020160010160149054906101000a900460ff16151514611cdb576040517f08c379a00000000000000000000000000000000000000000000000000000000081526004018080602001828103825260158152602001807f546f6b656e20686173206265656e206d696e746564000000000000000000000081525060200191505060405180910390fd5b600160138381548110611cea57fe5b906000526020600020906002020160010160146101000a81548160ff021916908315150217905550611d1c8383611630565b506001905092915050565b3373ffffffffffffffffffffffffffffffffffffffff168273ffffffffffffffffffffffffffffffffffffffff161415611d6057600080fd5b80600560003373ffffffffffffffffffffffffffffffffffffffff1673ffffffffffffffffffffffffffffffffffffffff16815260200190815260200160002060008473ffffffffffffffffffffffffffffffffffffffff1673ffffffffffffffffffffffffffffffffffffffff16815260200190815260200160002060006101000a81548160ff0219169083151502179055508173ffffffffffffffffffffffffffffffffffffffff163373ffffffffffffffffffffffffffffffffffffffff167f17307eab39ab6107e8899845ad3d59bd9653f200f220920489ca2b5937696c3183604051808215151515815260200191505060405180910390a35050565b60008060009054906101000a900473ffffffffffffffffffffffffffffffffffffffff16905090565b6000809054906101000a900473ffffffffffffffffffffffffffffffffffffffff1681565b611eba8484846113ea565b611ec684848484612b1b565b611ecf57600080fd5b50505050565b6060611ee0826126fe565b611ee957600080fd5b601260008381526020019081526020016000208054600181600116156101000203166002900480601f016020809104026020016040519081016040528092919081815260200182805460018160011615610100020316600290048015611f905780601f10611f6557610100808354040283529160200191611f90565b820191906000526020600020905b815481529060010190602001808311611f7357829003601f168201915b50505050509050919050565b606060118054600181600116156101000203166002900480601f0160208091040260200160405190810160405280929190818152602001828054600181600116156101000203166002900480156120345780601f1061200957610100808354040283529160200191612034565b820191906000526020600020905b81548152906001019060200180831161201757829003601f168201915b5050505050905090565b6000848484846040516020018085600260200280838360005b83811015612072578082015181840152602081019050612057565b505050509050018460026000925b818410156120c65782846020020151600260200280838360005b838110156120b557808201518184015260208101905061209a565b505050509050019260010192612080565b9250505083600260200280838360005b838110156120f15780820151818401526020810190506120d6565b5050505090500182600260200280838360005b8381101561211f578082015181840152602081019050612104565b50505050905001945050505050604051602081830303815290604052805190602001209050600015156014600083815260200190815260200160002060009054906101000a900460ff161515146121de576040517f08c379a00000000000000000000000000000000000000000000000000000000081526004018080602001828103825260158152602001807f4e6f74206120756e6971756520736f6c7574696f6e000000000000000000000081525060200191505060405180910390fd5b60006121ec86868686611765565b905080612261576040517f08c379a000000000000000000000000000000000000000000000000000000000815260040180806020018281038252601f8152602001807f736f6c7574696f6e7320636f756c64206e6f742062652076657269666965640081525060200191505060405180910390fd5b6122696144d9565b60405180606001604052808981526020018a73ffffffffffffffffffffffffffffffffffffffff168152602001600015158152509050601381908060018154018082558091505090600182039060005260206000209060020201600090919290919091506000820151816000015560208201518160010160006101000a81548173ffffffffffffffffffffffffffffffffffffffff021916908373ffffffffffffffffffffffffffffffffffffffff16021790555060408201518160010160146101000a81548160ff02191690831515021790555050505060016014600085815260200190815260200160002060006101000a81548160ff0219169083151502179055507f48966b68a5367cf3ba62affaa7ec2584bb3b542923ce98698ad05ecfc927ca25888a604051808381526020018273ffffffffffffffffffffffffffffffffffffffff1673ffffffffffffffffffffffffffffffffffffffff1681526020019250505060405180910390a1505050505050505050565b6000600560008473ffffffffffffffffffffffffffffffffffffffff1673ffffffffffffffffffffffffffffffffffffffff16815260200190815260200160002060008373ffffffffffffffffffffffffffffffffffffffff1673ffffffffffffffffffffffffffffffffffffffff16815260200190815260200160002060009054906101000a900460ff16905092915050565b6000809054906101000a900473ffffffffffffffffffffffffffffffffffffffff1673ffffffffffffffffffffffffffffffffffffffff163373ffffffffffffffffffffffffffffffffffffffff1614612539576040517f08c379a00000000000000000000000000000000000000000000000000000000081526004018080602001828103825260198152602001807f4e6f74206f776e6572206f662074686520636f6e74726163740000000000000081525060200191505060405180910390fd5b600073ffffffffffffffffffffffffffffffffffffffff168173ffffffffffffffffffffffffffffffffffffffff1614156125dc576040517f08c379a000000000000000000000000000000000000000000000000000000000815260040180806020018281038252601e8152602001807f6e65774f776e6572206973206e6f742061207265616c2061646472657373000081525060200191505060405180910390fd5b60008060009054906101000a900473ffffffffffffffffffffffffffffffffffffffff169050816000806101000a81548173ffffffffffffffffffffffffffffffffffffffff021916908373ffffffffffffffffffffffffffffffffffffffff1602179055507f7ee35ffa528a36037ec23ed4b99d479118464d605ffa951ac0441db66273b332816000809054906101000a900473ffffffffffffffffffffffffffffffffffffffff16604051808373ffffffffffffffffffffffffffffffffffffffff1673ffffffffffffffffffffffffffffffffffffffff1681526020018273ffffffffffffffffffffffffffffffffffffffff1673ffffffffffffffffffffffffffffffffffffffff1681526020019250505060405180910390a15050565b6000806002600084815260200190815260200160002060009054906101000a900473ffffffffffffffffffffffffffffffffffffffff169050600073ffffffffffffffffffffffffffffffffffffffff168173ffffffffffffffffffffffffffffffffffffffff161415915050919050565b60008061277c83611961565b90508073ffffffffffffffffffffffffffffffffffffffff168473ffffffffffffffffffffffffffffffffffffffff1614806127eb57508373ffffffffffffffffffffffffffffffffffffffff166127d384611198565b73ffffffffffffffffffffffffffffffffffffffff16145b806127fc57506127fb81856123e3565b5b91505092915050565b612810838383612d04565b61281a8382612f7c565b612824828261311a565b505050565b61283382826131e1565b61283d828261311a565b612846816133f9565b5050565b612853816126fe565b6128c5576040517f08c379a000000000000000000000000000000000000000000000000000000000815260040180806020018281038252601b8152602001807f5468697320697320616e20696e76616c696420746f6b656e206964000000000081525060200191505060405180910390fd5b61297160118054600181600116156101000203166002900480601f01602080910402602001604051908101604052809291908181526020018280546001816001161561010002031660029004801561295e5780601f106129335761010080835404028352916020019161295e565b820191906000526020600020905b81548152906001019060200180831161294157829003601f168201915b505050505061296c83613445565b613572565b601260008381526020019081526020016000209080519060200190612997929190614512565b5050565b6000807f30644e72e131a029b85045b68181585d2833e84879b9709143e1f593f000000190506129c9614592565b6129d16135b6565b90508060800151516001865101146129e857600080fd5b6129f06145d9565b6040518060400160405280600081526020016000815250905060008090505b8651811015612a865783878281518110612a2557fe5b602002602001015110612a3757600080fd5b612a7782612a7285608001516001850181518110612a5157fe5b60200260200101518a8581518110612a6557fe5b6020026020010151613a04565b613a96565b91508080600101915050612a0f565b50612aa9818360800151600081518110612a9c57fe5b6020026020010151613a96565b9050612aef85600001518660200151612ac184613b47565b8560400151612ad38a60400151613b47565b8760600151612ae58960000151613b47565b8960200151613be1565b612aff5760019350505050612b07565b600093505050505b92915050565b600081600001549050919050565b6000612b3c8473ffffffffffffffffffffffffffffffffffffffff16613d45565b612b495760019050612cfc565b60008473ffffffffffffffffffffffffffffffffffffffff1663150b7a02338887876040518563ffffffff1660e01b8152600401808573ffffffffffffffffffffffffffffffffffffffff1673ffffffffffffffffffffffffffffffffffffffff1681526020018473ffffffffffffffffffffffffffffffffffffffff1673ffffffffffffffffffffffffffffffffffffffff16815260200183815260200180602001828103825283818151815260200191508051906020019080838360005b83811015612c24578082015181840152602081019050612c09565b50505050905090810190601f168015612c515780820380516001836020036101000a031916815260200191505b5095505050505050602060405180830381600087803b158015612c7357600080fd5b505af1158015612c87573d6000803e3d6000fd5b505050506040513d6020811015612c9d57600080fd5b8101908080519060200190929190505050905063150b7a0260e01b7bffffffffffffffffffffffffffffffffffffffffffffffffffffffff1916817bffffffffffffffffffffffffffffffffffffffffffffffffffffffff1916149150505b949350505050565b612d0d81611961565b73ffffffffffffffffffffffffffffffffffffffff168373ffffffffffffffffffffffffffffffffffffffff1614612d90576040517f08c379a000000000000000000000000000000000000000000000000000000000815260040180806020018281038252602d81526020018061480c602d913960400191505060405180910390fd5b600073ffffffffffffffffffffffffffffffffffffffff168273ffffffffffffffffffffffffffffffffffffffff161415612e33576040517f08c379a00000000000000000000000000000000000000000000000000000000081526004018080602001828103825260208152602001807f7472616e7366657220746f2061646472657373206973206e6f742076616c696481525060200191505060405180910390fd5b612e3c81613d90565b612e83600460008573ffffffffffffffffffffffffffffffffffffffff1673ffffffffffffffffffffffffffffffffffffffff168152602001908152602001600020613e4e565b612eca600460008473ffffffffffffffffffffffffffffffffffffffff1673ffffffffffffffffffffffffffffffffffffffff168152602001908152602001600020613e71565b816002600083815260200190815260200160002060006101000a81548173ffffffffffffffffffffffffffffffffffffffff021916908373ffffffffffffffffffffffffffffffffffffffff160217905550808273ffffffffffffffffffffffffffffffffffffffff168473ffffffffffffffffffffffffffffffffffffffff167fddf252ad1be2c89b69c2b068fc378daa952ba7f163c4a11628f55a4df523b3ef60405160405180910390a4505050565b6000612fd46001600660008673ffffffffffffffffffffffffffffffffffffffff1673ffffffffffffffffffffffffffffffffffffffff16815260200190815260200160002080549050613e8790919063ffffffff16565b90506000600760008481526020019081526020016000205490508181146130c1576000600660008673ffffffffffffffffffffffffffffffffffffffff1673ffffffffffffffffffffffffffffffffffffffff168152602001908152602001600020838154811061304157fe5b9060005260206000200154905080600660008773ffffffffffffffffffffffffffffffffffffffff1673ffffffffffffffffffffffffffffffffffffffff168152602001908152602001600020838154811061309957fe5b9060005260206000200181905550816007600083815260200190815260200160002081905550505b600660008573ffffffffffffffffffffffffffffffffffffffff1673ffffffffffffffffffffffffffffffffffffffff16815260200190815260200160002080548091906001900361311391906145f3565b5050505050565b600660008373ffffffffffffffffffffffffffffffffffffffff1673ffffffffffffffffffffffffffffffffffffffff168152602001908152602001600020805490506007600083815260200190815260200160002081905550600660008373ffffffffffffffffffffffffffffffffffffffff1673ffffffffffffffffffffffffffffffffffffffff1681526020019081526020016000208190806001815401808255809150509060018203906000526020600020016000909192909190915055505050565b6131ea816126fe565b1561325d576040517f08c379a00000000000000000000000000000000000000000000000000000000081526004018080602001828103825260148152602001807f546f6b656e20616c72656164792065786973747300000000000000000000000081525060200191505060405180910390fd5b600073ffffffffffffffffffffffffffffffffffffffff168273ffffffffffffffffffffffffffffffffffffffff161415613300576040517f08c379a00000000000000000000000000000000000000000000000000000000081526004018080602001828103825260188152602001807f4164647265737320676976656e20697320696e76616c6964000000000000000081525060200191505060405180910390fd5b816002600083815260200190815260200160002060006101000a81548173ffffffffffffffffffffffffffffffffffffffff021916908373ffffffffffffffffffffffffffffffffffffffff160217905550613399600460008473ffffffffffffffffffffffffffffffffffffffff1673ffffffffffffffffffffffffffffffffffffffff168152602001908152602001600020613e71565b808273ffffffffffffffffffffffffffffffffffffffff16600073ffffffffffffffffffffffffffffffffffffffff167fddf252ad1be2c89b69c2b068fc378daa952ba7f163c4a11628f55a4df523b3ef60405160405180910390a45050565b6008805490506009600083815260200190815260200160002081905550600881908060018154018082558091505090600182039060005260206000200160009091929091909150555050565b6060600082141561348d576040518060400160405280600181526020017f3000000000000000000000000000000000000000000000000000000000000000815250905061356d565b600082905060005b600082146134b7578080600101915050600a82816134af57fe5b049150613495565b6060816040519080825280601f01601f1916602001820160405280156134ec5781602001600182028038833980820191505090505b50905060006001830390505b6000861461356557600a868161350a57fe5b0660300160f81b8282806001900393508151811061352457fe5b60200101907effffffffffffffffffffffffffffffffffffffffffffffffffffffffffffff1916908160001a905350600a868161355d57fe5b0495506134f8565b819450505050505b919050565b60606135ae8383604051806020016040528060008152506040518060200160405280600081525060405180602001604052806000815250613ed1565b905092915050565b6135be614592565b60405180604001604052807f29f7dbb779249c13e2a701ab4593b7a022257ca1aadb9ea5e6d0144678f4788381526020017f24232a24683cc8cb76f3b8c204bbc85c62d6732e999879f2c59bfe2eb1831b388152508160000181905250604051806040016040528060405180604001604052807f013bb4a0f8f5dfbbd42f53ccc188d5895648385cdf1e44fc9399d3dcd1c6df4e81526020017f0c95b69682d36310fa7bea3846dbe84d6aeab58f32016292eca9cbf91d6a0c0d815250815260200160405180604001604052807f1fc11ed2997879e66b72a307db3584cda789dfa74df2f056ec97c9afeb8dd63f81526020017f01a2877e27cea7a6d82f0891935f791b8249028b10da5036941f41a10de491fd8152508152508160200181905250604051806040016040528060405180604001604052807f024cfe8e4a0aa86c027875f4c8d63e607d048520fa9c857294a78d9149935b8881526020017f19d695e46f2bb2d82d7b0c5608731643665eb0ac10e56f11e43455836f008a40815250815260200160405180604001604052807f163b4826af8249873f98cba83ef8e6b984c59492f146b2c9c6b47ec25df5498e81526020017f18b3675ffaabcad4826f7153d418c8ea3b1aa71e26423fb657f27b45eb2d7efb8152508152508160400181905250604051806040016040528060405180604001604052807f133c2f40754eb2c37ac6e8c0263c10987ad09d7faac8f04f8f16adc99efa322c81526020017f2faa7f49109eee6c99daf9fcb498c7c7b46fa9e60eb3d9b8b127b371234f93b4815250815260200160405180604001604052807f21f7678c2195a9a3d2e3ca4bef353888e278179ee7406c9612545ebd12ff1ba581526020017f24e8faf6837174bfdac2ba384820c93e8f6993607bfe0b4708fb0580e6f83ff4815250815250816060018190525060036040519080825280602002602001820160405280156138a557816020015b61389261461f565b81526020019060019003908161388a5790505b50816080018190525060405180604001604052807f06e7e43ce512f6d6e42ed6935d7aad885fe8a8911a9bd132951ae36a9d69ffd381526020017f01888a6ec55fb9445d0ed0ac8528ca9e3159c8cb00f56c66ccdb51a666015eba815250816080015160008151811061391457fe5b602002602001018190525060405180604001604052807f061f5f8b6008ac418741e6d6efdff972b957ff73bde725f96d6451750e54357c81526020017f068a9d2fcf7cd55417e0cde4cc11116152e0ae728bfebc557393dc89ef1bab78815250816080015160018151811061398557fe5b602002602001018190525060405180604001604052807f2e434abf456d6010e34fc7fda9b22ac16cc8cd0900507ef668f5c369309386eb81526020017f07771b20b8bb0e7b90ad806cdd896f5f3dfe36ece7c5fdaee2dc0690e476d5dc81525081608001516002815181106139f657fe5b602002602001018190525090565b613a0c6145d9565b613a14614639565b836000015181600060038110613a2657fe5b602002018181525050836020015181600160038110613a4157fe5b6020020181815250508281600260038110613a5857fe5b602002018181525050600060608360808460076107d05a03fa90508060008114613a8157613a83565bfe5b5080613a8e57600080fd5b505092915050565b613a9e6145d9565b613aa661465b565b836000015181600060048110613ab857fe5b602002018181525050836020015181600160048110613ad357fe5b602002018181525050826000015181600260048110613aee57fe5b602002018181525050826020015181600360048110613b0957fe5b602002018181525050600060608360c08460066107d05a03fa90508060008114613b3257613b34565bfe5b5080613b3f57600080fd5b505092915050565b613b4f6145d9565b60007f30644e72e131a029b85045b68181585d97816a916871ca8d3c208c16d87cfd47905060008360000151148015613b8c575060008360200151145b15613bb0576040518060400160405280600081526020016000815250915050613bdc565b60405180604001604052808460000151815260200182856020015181613bd257fe5b0683038152509150505b919050565b600060606004604051908082528060200260200182016040528015613c2057816020015b613c0d61461f565b815260200190600190039081613c055790505b50905060606004604051908082528060200260200182016040528015613c6057816020015b613c4d61467d565b815260200190600190039081613c455790505b5090508a82600081518110613c7157fe5b60200260200101819052508882600181518110613c8a57fe5b60200260200101819052508682600281518110613ca357fe5b60200260200101819052508482600381518110613cbc57fe5b60200260200101819052508981600081518110613cd557fe5b60200260200101819052508781600181518110613cee57fe5b60200260200101819052508581600281518110613d0757fe5b60200260200101819052508381600381518110613d2057fe5b6020026020010181905250613d358282614193565b9250505098975050505050505050565b60008060007fc5d2460186f7233c927e7db2dcc703c0e500b653ca82273b7bfad8045d85a47060001b9050833f9150808214158015613d8757506000801b8214155b92505050919050565b600073ffffffffffffffffffffffffffffffffffffffff166003600083815260200190815260200160002060009054906101000a900473ffffffffffffffffffffffffffffffffffffffff1673ffffffffffffffffffffffffffffffffffffffff1614613e4b5760006003600083815260200190815260200160002060006101000a81548173ffffffffffffffffffffffffffffffffffffffff021916908373ffffffffffffffffffffffffffffffffffffffff1602179055505b50565b613e6660018260000154613e8790919063ffffffff16565b816000018190555050565b6001816000016000828254019250508190555050565b6000613ec983836040518060400160405280601e81526020017f536166654d6174683a207375627472616374696f6e206f766572666c6f7700008152506143e6565b905092915050565b6060808690506060869050606086905060608690506060869050606081518351855187518951010101016040519080825280601f01601f191660200182016040528015613f2d5781602001600182028038833980820191505090505b509050606081905060008090506000809050600090505b8851811015613fb257888181518110613f5957fe5b602001015160f81c60f81b838380600101945081518110613f7657fe5b60200101907effffffffffffffffffffffffffffffffffffffffffffffffffffffffffffff1916908160001a9053508080600101915050613f44565b600090505b875181101561402557878181518110613fcc57fe5b602001015160f81c60f81b838380600101945081518110613fe957fe5b60200101907effffffffffffffffffffffffffffffffffffffffffffffffffffffffffffff1916908160001a9053508080600101915050613fb7565b600090505b86518110156140985786818151811061403f57fe5b602001015160f81c60f81b83838060010194508151811061405c57fe5b60200101907effffffffffffffffffffffffffffffffffffffffffffffffffffffffffffff1916908160001a905350808060010191505061402a565b600090505b855181101561410b578581815181106140b257fe5b602001015160f81c60f81b8383806001019450815181106140cf57fe5b60200101907effffffffffffffffffffffffffffffffffffffffffffffffffffffffffffff1916908160001a905350808060010191505061409d565b600090505b845181101561417e5784818151811061412557fe5b602001015160f81c60f81b83838060010194508151811061414257fe5b60200101907effffffffffffffffffffffffffffffffffffffffffffffffffffffffffffff1916908160001a9053508080600101915050614110565b82995050505050505050505095945050505050565b600081518351146141a357600080fd5b60008351905060006006820290506060816040519080825280602002602001820160405280156141e25781602001602082028038833980820191505090505b50905060008090505b83811015614388578681815181106141ff57fe5b60200260200101516000015182600060068402018151811061421d57fe5b60200260200101818152505086818151811061423557fe5b60200260200101516020015182600160068402018151811061425357fe5b60200260200101818152505085818151811061426b57fe5b60200260200101516000015160016002811061428357fe5b602002015182600260068402018151811061429a57fe5b6020026020010181815250508581815181106142b257fe5b6020026020010151600001516000600281106142ca57fe5b60200201518260036006840201815181106142e157fe5b6020026020010181815250508581815181106142f957fe5b60200260200101516020015160016002811061431157fe5b602002015182600460068402018151811061432857fe5b60200260200101818152505085818151811061434057fe5b60200260200101516020015160006002811061435857fe5b602002015182600560068402018151811061436f57fe5b60200260200101818152505080806001019150506141eb565b506143916146a3565b6000602082602086026020860160086107d05a03fa905080600081146143b6576143b8565bfe5b50806143c357600080fd5b6000826000600181106143d257fe5b602002015114159550505050505092915050565b6000838311158290614493576040517f08c379a00000000000000000000000000000000000000000000000000000000081526004018080602001828103825283818151815260200191508051906020019080838360005b8381101561445857808201518184015260208101905061443d565b50505050905090810190601f1680156144855780820380516001836020036101000a031916815260200191505b509250505060405180910390fd5b5060008385039050809150509392505050565b60405180606001604052806144b961461f565b81526020016144c661467d565b81526020016144d361461f565b81525090565b604051806060016040528060008152602001600073ffffffffffffffffffffffffffffffffffffffff1681526020016000151581525090565b828054600181600116156101000203166002900490600052602060002090601f016020900481019282601f1061455357805160ff1916838001178555614581565b82800160010185558215614581579182015b82811115614580578251825591602001919060010190614565565b5b50905061458e91906146c5565b5090565b6040518060a001604052806145a561461f565b81526020016145b261467d565b81526020016145bf61467d565b81526020016145cc61467d565b8152602001606081525090565b604051806040016040528060008152602001600081525090565b81548183558181111561461a5781836000526020600020918201910161461991906146c5565b5b505050565b604051806040016040528060008152602001600081525090565b6040518060600160405280600390602082028038833980820191505090505090565b6040518060800160405280600490602082028038833980820191505090505090565b60405180604001604052806146906146ea565b815260200161469d6146ea565b81525090565b6040518060200160405280600190602082028038833980820191505090505090565b6146e791905b808211156146e35760008160009055506001016146cb565b5090565b90565b6040518060400160405280600290602082028038833980820191505090505090565b63ffffffff60e01b817bffffffffffffffffffffffffffffffffffffffffffffffffffffffff1916141561473f57600080fd5b6001806000837bffffffffffffffffffffffffffffffffffffffffffffffffffffffff19167bffffffffffffffffffffffffffffffffffffffffffffffffffffffff1916815260200190815260200160002060006101000a81548160ff0219169083151502179055505056fe50726f7669646564204164647265737320646f6573206e6f74206d617463682074686520736f6c7574696f6e20616464726573734f776e6572206f6620546f6b656e20494420697320657175616c20746f2074686520746f206164647265737346726f6d206164647266657373206973204e4f54206f776e6572206f662074686520676976656e20746f6b656ea265627a7a723158209267d647b6e7f84c91fdff85d54a3bef4486a0e8d29b2f895ae50988af9d16a764736f6c6343000510003268747470733a2f2f73332d75732d776573742d322e616d617a6f6e6177732e636f6d2f756461636974792d626c6f636b636861696e2f63617073746f6e652f",
  "source": "pragma solidity >=0.4.21 <0.6.0;\n\nimport \"./Oraclize.sol\";\nimport \"./ERC721Mintable.sol\";\nimport \"./Verifier.sol\";\n\n\n//// TODO define a contract call to the zokrates generated solidity contract <Verifier> or <renamedVerifier>\n//contract SquareVerifier is Verifier {\n//\n//}\n\n// TODO define another contract named SolnSquareVerifier that inherits from your ERC721Mintable class\ncontract SolnSquareVerifier is Verifier, CustomERC721Token {\n\n    constructor() public {\n        solutionStruct.push(Solution(0, address(0), false));\n    }\n\n    // TODO define a solutions struct that can hold an index & an address\n    struct Solution {\n          uint256 _index;\n          address _address;\n           bool _isMint;\n     }\n\n    // TODO define an array of the above struct\n    Solution[] solutionStruct;\n\n    // TODO define a mapping to store unique solutions submitted\n    mapping(bytes32 => bool) public uniqueSolution;\n\n//Modifier\n  modifier onlyOwner(){\n        require(msg.sender == _owner,\"Not owner of the contract\");\n        _;\n    }\n\n\n    // TODO Create an event to emit when a solution is added\n    event addedSolution(uint256 index, address _address);\n\n    // TODO Create a function to add the solutions to the array and emit the event\n    function addSolutionArray(address _address, uint256 _index, uint[2] memory a, uint[2][2] memory b, uint[2] memory c, uint[2] memory input) public {\n        bytes32 key = keccak256(abi.encodePacked(a, b, c, input));\n        require(uniqueSolution[key] == false, \"Not a unique solution\");\n        bool txVerifyTrue = verifyTx(a, b, c, input);\n        require(txVerifyTrue, \"solutions could not be verified\");\n         Solution memory solution = Solution(_index, _address, false);\n         solutionStruct.push(solution);\n         uniqueSolution[key] = true;\n         emit addedSolution(_index, _address);\n    }\n\n    // TODO Create a function to mint new NFT only after the solution has been verified\n    //  - make sure the solution is unique (has not been used before)\n    //  - make sure you handle metadata as well as tokenSupply\n    function mintTheNft( address _address, uint256 tokenId ) public onlyOwner returns(bool) {\n        require(solutionStruct[tokenId]._address == _address, \"Provided Address does not match the solution address\");\n        require(solutionStruct[tokenId]._isMint == false, \"Token has been minted\");\n         solutionStruct[tokenId]._isMint = true;\n         super.mint(_address, tokenId);\n         return true;\n    }\n\n}\n\n  \n\n\n\n\n\n\n\n\n\n\n\n\n\n\n\n\n\n\n\n\n\n\n\n\n\n",
  "sourcePath": "/Users/jayc/Desktop/Blockchain-Capstone/eth-contracts/contracts/SolnSquareVerifier.sol",
  "compiler": {
    "name": "solc",
    "version": "0.5.16+commit.9c3226ce.Emscripten.clang"
  },
  "schemaVersion": "3.4.4",
  "updatedAt": "2022-08-03T23:19:27.156Z",
  "networkType": "ethereum",
  "devdoc": {
    "methods": {
      "isApprovedForAll(address,address)": {
        "details": "Tells whether an operator is approved by a given owner",
        "params": {
          "operator": "operator address which you want to query the approval of",
          "owner": "owner address which you want to query the approval of"
        },
        "return": "bool whether the given operator is approved by the given owner"
      },
      "setApprovalForAll(address,bool)": {
        "details": "Sets or unsets the approval of a given operator An operator is allowed to transfer all tokens of the sender on their behalf",
        "params": {
          "approved": "representing the status of the approval to be set",
          "to": "operator address to set the approval"
        }
      },
      "supportsInterface(bytes4)": {
        "details": "implement supportsInterface(bytes4) using a lookup table"
      },
      "tokenByIndex(uint256)": {
        "details": "Gets the token ID at a given index of all the tokens in this contract Reverts if the index is greater or equal to the total number of tokens",
        "params": {
          "index": "uint256 representing the index to be accessed of the tokens list"
        },
        "return": "uint256 token ID at the given index of the tokens list"
      },
      "tokenOfOwnerByIndex(address,uint256)": {
        "details": "Gets the token ID at a given index of the tokens list of the requested owner",
        "params": {
          "index": "uint256 representing the index to be accessed of the requested tokens list",
          "owner": "address owning the tokens list to be accessed"
        },
        "return": "uint256 token ID at the given index of the tokens list owned by the requested address"
      },
      "totalSupply()": {
        "details": "Gets the total amount of tokens stored by the contract",
        "return": "uint256 representing the total amount of tokens"
      }
    }
  },
  "userdoc": {
    "methods": {},
    "notice": "/ TODO define a contract call to the zokrates generated solidity contract <Verifier> or <renamedVerifier>"
  }
}